:100000000C945C000C947B000C947B000C947B00A3
:100010000C947B000C947B000C947B000C947B0074
:100020000C947B000C947B000C947B000C947B0064
:100030000C947B000C9469010C947B000C947B0065
:100040000C947B000C947B000C947B000C947B0044
:100050000C947B000C947B000C947B000C947B0034
:100060000C947B000C947B000C947B000C947B0024
:100070000C947B000C947B000C947B000C947B0014
:100080000C947B000C947B000C947B00D202D90270
:100090008703A7032703420458036A0480037D04EF
:1000A000A704B904BC04C9042F05D404FD05180530
:1000B0000B0626051406500611241FBECFEFD0E410
:1000C000DEBFCDBF12E0A0E0B1E0EEE5F4E100E07C
:1000D0000BBF02C007900D92AA3FB107D9F713E0FA
:1000E000AAEFB2E001C01D92A731B107E1F70E946B
:1000F000E3070C942D0A0C94000088B95E985D9873
:100100005F9A82E08A95F1F700C05F988FE99FE0DF
:100110000197F1F700C00000089588B95E9A5D98D4
:100120005F9A82E08A95F1F700C05F988FE99FE0BF
:100130000197F1F700C0000008958FEF8AB987B9E1
:100140008FE39CE90197F1F700C0000088E30E946B
:100150007D008CE00E947D0086E00E947D0081E0B1
:100160000E947D008FE99FE00197F1F700C0000039
:1001700080E80E947D0008950F931F93CF93DF9333
:100180008C01C0E0D0E003C00E948D002196F801F0
:10019000EC0FFD1F80818111F7CFDF91CF911F916F
:1001A0000F910895CF93DF93EA01811108C0603168
:1001B00034F4862F8F7080680E947D0009C08130E2
:1001C00039F460312CF4862F8F70806C0E947D0092
:1001D000CE010E94BC00DF91CF91089581E00E9482
:1001E0007D0080E80E947D0008950F931F93CF93B8
:1001F000883090F48B01880F880F880F805C0E94F4
:100200007D00C0E007C0F801EC0FF11D80810E9465
:100210008D00CF5FC830B8F3CF911F910F91089533
:10022000813120F481580E947D00089581550E94FB
:100230007D00089511B887E880937A0080E4809368
:100240007C0008958770806480937C00EAE7F0E08A
:1002500080818064808380917A0084FFFCCFEAE70C
:10026000F0E0808180618083209178008091790026
:1002700090E0982F8827820F911D08958BE080933E
:1002800081008DE790E0909389008093880082E060
:1002900080936F0010928500109284008091440238
:1002A00090914502A0914602B09147028093FE02D0
:1002B0009093FF02A0930003B09301038FB780686F
:1002C0008FBF089510928100089581E0809302030A
:1002D00008951F920F920FB60F9211240BB60F9232
:1002E0002F933F934F935F936F937F938F939F933E
:1002F000AF93BF93EF93FF938091FE029091FF0223
:10030000A0910003B09101030197A109B109809365
:10031000FE029093FF02A0930003B0930103892B88
:100320008A2B8B2B91F40E9465018091440290915D
:100330004502A0914602B09147028093FE0290933D
:10034000FF02A0930003B0930103FF91EF91BF91CF
:10035000AF919F918F917F916F915F914F913F915D
:100360002F910F900BBE0F900FBE0F901F901895FE
:100370006093440270934502809346029093470233
:100380006093FE027093FF02809300039093010339
:100390000895CF92DF92EF92FF926B017C01209142
:1003A00003033091040340910503509106030E941A
:1003B0006108882309F458C020E030E0A901C70192
:1003C000B6010E946108811106C0E1E9F0E0808178
:1003D0008870808305C0E1E9F0E0808183608083DC
:1003E00028E539E344E75FE3C701B6010E946108ED
:1003F00088233CF48FEF9FEF9093990080939800AF
:1004000027C020E034E244EF56E4C701B6010E9461
:10041000B00918162CF4109299001092980018C088
:1004200020E030E040E053E4C701B6010E94B40987
:100430009B01AC0160E074E284EF9AE40E946508DD
:100440000E94CD08615071097093990060939800E3
:100450001092950010929400C0920303D09204036E
:10046000E0920503F0920603FF90EF90DF90CF90AB
:10047000089580E4809390008BE08093910060E089
:1004800070E0CB010E94C901089510929000109273
:1004900091000895CF93DF93CDB7DEB7E0970FB605
:1004A000F894DEBF0FBECDBF88E0E8E4F2E0DE01E5
:1004B000119601900D928A95E1F788E0E0E5F2E06F
:1004C000DE01199601900D928A95E1F788E0E8E542
:1004D000F2E0DE01519601900D928A95E1F788E0F5
:1004E000E0E6F2E0DE01599601900D928A95E1F77F
:1004F00088E0E8E6F2E0DE01919601900D928A959F
:10050000E1F788E0E0E7F2E0DE01999601900D92D4
:100510008A95E1F70E949D00BE016F5F7F4F80E0EA
:100520000E94F500BE01675F7F4F81E00E94F500E9
:10053000BE01675F7F4F82E00E94F500BE01675FEA
:100540007F4F83E00E94F500BE016F5E7F4F84E025
:100550000E94F500BE01675E7F4F85E00E94F500B6
:10056000BE016F5D7F4F86E00E94F500BE01675DB2
:100570007F4F87E00E94F500E0960FB6F894DEBF4B
:100580000FBECDBFDF91CF91089580B1E0910E03F2
:10059000F0910F03EB30F10508F0DFC1EA5BFF4F8C
:1005A0000C94580881E090E090930F0380930E0321
:1005B000D4C180E00E942201909311038093100324
:1005C00081E00E942201909311038093100318167A
:1005D00019066CF00E94EE0081E00E94100184E098
:1005E0000E948D001092FB021092FA0211C0853613
:1005F000910574F00E94EE0081E10E94100184E0F8
:100600000E948D0081E090E09093FB028093FA02BB
:100610001899A3C18091FA029091FB02019739F4D5
:1006200082E090E090930F0380930E0396C184E0E4
:1006300090E090930F0380930E030E94EE0088E8F1
:1006400092E00E94BC0084E00E948D0086C18091EF
:10065000120390E0E0910C03F0E0EE0FFF1FE65D67
:10066000FE4F208131812817390738F084E090E06F
:1006700090930F0380930E0370C12817390708F079
:100680006CC1809113038F5F809313038E3038F019
:1006900088E090E090930F0380930E035EC186E0A4
:1006A00090E090930F0380930E031092120355C1B4
:1006B0008091120390E0E0911303F0E0EE0FFF1F32
:1006C000E258FE4F208131812817390738F086E043
:1006D00090E090930F0380930E033FC128173907D2
:1006E00008F03BC184E090E090930F0380930E03E9
:1006F00080910C038F5F80930C03109212032DC125
:1007000081E090E090930F0380930E0326C188E967
:1007100092E00E94BC0084E00E948D00189910C0F5
:1007200083E090E090930F0380930E030E94EE000D
:100730008CEA92E00E94BC0082E00E948D000DC114
:1007400082E090E090930F0380930E0306C18091A6
:100750000B038E3078F52091120330E0E0910C030A
:10076000F0E0EE0FFF1FE456FE4F4081518142172B
:10077000530738F023E030E030930F0320930E034B
:1007800019C042175307B0F4909113039F5F9093E1
:1007900013039E3038F027E030E030930F032093AE
:1007A0000E0308C025E030E030930F0320930E03C2
:1007B0001092120392EF980F9F3078F52091120358
:1007C00030E0E0910C03F0E0EE0FFF1FE854FE4F25
:1007D000408151814217530738F023E030E03093D5
:1007E0000F0320930E0319C042175307B0F49091E2
:1007F00013039F5F909313039F3038F027E030E09E
:1008000030930F0320930E0308C025E030E03093AF
:100810000F0320930E03109212038D518B3008F0BA
:100820009CC08091120390E0E0910C03F0E0EE0F89
:10083000FF1FEA52FE4F208131812817390738F017
:1008400083E090E090930F0380930E0386C02817F7
:10085000390708F082C0809113038F5F80931303E0
:100860008B3038F087E090E090930F0380930E0375
:1008700074C085E090E090930F0380930E03109274
:1008800012036BC08091120390E0E0911303F0E03B
:10089000EE0FFF1FE258FE4F2081318128173907E4
:1008A00038F085E090E090930F0380930E0355C0DD
:1008B0002817390708F051C083E090E090930F03A8
:1008C00080930E0380910C038F5F80930C03109232
:1008D000120343C00E94EE008BEB92E00E94BC002A
:1008E00080EC0E947D0083E00E948D0089E090E012
:1008F00090930F0380930E0330C0189B21C080910A
:100900000B03883269F089E090E090930F038093A5
:100910000E0381E090E09093FD028093FC021DC0E5
:100920000E94EE008CEC92E00E94BC0087E00E94E6
:100930008D008AE090E090930F0380930E030DC02A
:1009400082E090E090930F0380930E0306C0189905
:1009500004C010920F0310920E03E0910E03F09169
:100960000F03EB30F10508F0A0C1EF5AFF4F0C94D4
:10097000580810920B03089544ED52E061E080E0C6
:100980000E94D2004FED52E061E081E00E94D2006F
:1009900008951092FD021092FC0210920C03109226
:1009A0001203109213030895E0910C03F0E0EE0F90
:1009B000FF1FEA5BFE4F60817181882777FD80957C
:1009C000982F0E9400090E94C901E0910C03F0E0F9
:1009D000EE0FFF1FEA5BFE4F808191818D3E21E08B
:1009E0009207C9F044F4883821E0920781F0883BEF
:1009F000914079F017C08B3422E0920781F083395F
:100A000022E0920771F08B30924061F406C0589A50
:100A100009C0599A07C05A9A05C05B9A03C05C9AEC
:100A200001C05D9A809112038F5F80931203089535
:100A300060E070E0CB010E94C9018BB180788BB976
:100A4000809112038F5F80931203089560E070E03D
:100A5000CB010E94C9018BB180788BB90895809138
:100A60000B038E30F0F5E0910C03F0E0EE0FFF1F6A
:100A7000E051FE4F60817181882777FD8095982F26
:100A80000E9400090E94C901E0910C03F0E0EE0F02
:100A9000FF1FE051FE4F808191818D3E21E0920742
:100AA000C9F044F4883821E0920781F0883B9140F6
:100AB00079F017C08B3422E0920781F0833922E06D
:100AC000920771F08B30924061F406C0589A09C0C9
:100AD000599A07C05A9A05C05B9A03C05C9A01C034
:100AE0005D9A80910B038E508F30F0F5E0910C03EE
:100AF000F0E0EE0FFF1FE45FFD4F608171818827FA
:100B000077FD8095982F0E9400090E94C901E0910D
:100B10000C03F0E0EE0FFF1FE45FFD4F8081918139
:100B20008D3E21E09207C9F044F4883821E0920715
:100B300081F0883B914079F017C08B3422E0920716
:100B400081F0833922E0920771F08B30924061F49A
:100B500006C0589A09C0599A07C05A9A05C05B9AAC
:100B600003C05C9A01C05D9A80910B038D518B305C
:100B7000F0F5E0910C03F0E0EE0FFF1FE65DFD4F96
:100B800060817181882777FD8095982F0E940009E8
:100B90000E94C901E0910C03F0E0EE0FFF1FE65D3B
:100BA000FD4F808191818D3E21E09207C9F044F490
:100BB000883821E0920781F0883B914079F017C096
:100BC0008B3422E0920781F0833922E0920771F0A2
:100BD0008B30924061F406C0589A09C0599A07C0F8
:100BE0005A9A05C05B9A03C05C9A01C05D9A8091D5
:100BF00012038F5F80931203089560E070E0CB01D1
:100C00000E94C9018BB180788BB9809112038F5FEC
:100C100080931203089560E070E0CB010E94C90147
:100C20008BB180788BB90895009B07C060E070E0BD
:100C300084EC93E40E94C9010895019B07C060E021
:100C400070E08CED93E40E94C9010895029B07C0F7
:100C500060E070E886EF93E40E94C9010895039B69
:100C600007C060E070EC82E094E40E94C90108953E
:100C7000049B07C060E070EC82E194E40E94C9012B
:100C80000895059B07C060E070EC84E294E40E9444
:100C9000C901089560E070E0CB010E94C901089588
:100CA00060E070E0CB010E94C90108958F929F928D
:100CB000AF92BF92CF92DF92EF92FF92CF93C0B1EB
:100CC0008091140390911503009719F0019741F05A
:100CD000CAC081E090E09093150380931403C3C0D1
:100CE00082E090E00E94170A90E0A0E0B0E08093DC
:100CF000070390930803A0930903B0930A03CC233E
:100D000069F121E030E03093150320931403209122
:100D1000FC023091FD022130310501F520910B03D9
:100D2000E22FF0E0E050FF4F30813C1304C02F5F12
:100D300020930B0313C02E3018F410920B030EC037
:100D400032EF320F3F3020F42EE020930B0306C029
:100D50002D512B3018F42DE120930B0320910B0320
:100D60004FEF50E0421B5109662757FD6095762FE3
:100D7000481759076A077B0790F4BC01CD01615001
:100D800071098109910960930703709308038093A7
:100D9000090390930A0382E090E00E941F0A8CE10D
:100DA0000E94100180910B03CDEC8C9F812D1124AA
:100DB000869586958695805D0E948D008DE10E94C6
:100DC000100180910B038C9FC12D1124C695C695EF
:100DD000C695CC0F9C2F990F990FC90F8C1B805D66
:100DE0000E948D008FE10E941001C12CD12C760150
:100DF000CA948091070390910803A0910903B091D0
:100E00000A03A7019601281B390B4A0B5B0BCA0189
:100E1000B9010F2EFAE08F2E912CA12CB12CF02DC0
:100E2000A50194010E94360880E3820F0E948D0084
:100E300080E20E9410018091070390910803A09125
:100E40000903B0910A03A7019601281B390B4A0B2D
:100E50005B0BCA01B901A50194010E94360880E329
:100E6000860F0E948D00CF91FF90EF90DF90CF9082
:100E7000BF90AF909F908F9008951F93CF93DF9373
:100E8000CDB7DEB7C054D1090FB6F894DEBF0FBEA0
:100E9000CDBF88E0E8E4F2E0DE01119601900D920A
:100EA0008A95E1F788E0E0E5F2E0DE01199601902D
:100EB0000D928A95E1F788E0E8E7F2E0DE015196CD
:100EC00001900D928A95E1F788E0E0E8F2E0DE011A
:100ED000599601900D928A95E1F788E0E8E5F2E0F5
:100EE000DE01919601900D928A95E1F788E0E0E6A7
:100EF000F2E0DE01999601900D928A95E1F788E083
:100F0000E8E6F2E0DE01D19601900D928A95E1F7D4
:100F100088E0E0E7F2E0DE01D99601900D928A9533
:100F2000E1F70E949D00BE016F5F7F4F80E00E944D
:100F3000F500BE01675F7F4F81E00E94F500BE01B2
:100F40006F5E7F4F82E00E94F500BE01675E7F4FBB
:100F500083E00E94F500BE016F5D7F4F84E00E9438
:100F6000F500BE01675D7F4F85E00E94F500BE0180
:100F70006F5C7F4F86E00E94F500BE01675C7F4F8B
:100F800087E00E94F50080E80E947D0089EE92E0F3
:100F90000E94BC0080EC0E947D0010E007C0812F01
:100FA0000E948D0080E20E948D001F5F1830BCF30C
:100FB000C05CDF4F0FB6F894DEBF0FBECDBFDF9130
:100FC000CF911F9108950E941A0111B812B88EEFA7
:100FD00084B981E085B98FEF87B918B88AB91BB891
:100FE00010920F0310920E03109215031092140327
:100FF0000E949D000E943D070E94EE006AE070E0A2
:1010000080E090E00E94B8010E943E010E943902F7
:10101000812C912C5401C12CD12C76018AE0C81668
:10102000D104E104F10428F00E94C502C12CD12CA6
:1010300076018CE2881681E09806A104B10428F0BC
:101040000E945606812C912C540180910203882322
:10105000E1F3109202038AE0C80ED11CE11CF11CDE
:101060008AE0880E911CA11CB11CD8CFA1E21A2ED7
:10107000AA1BBB1BFD010DC0AA1FBB1FEE1FFF1F3C
:10108000A217B307E407F50720F0A21BB30BE40B8C
:10109000F50B661F771F881F991F1A9469F76095D3
:1010A0007095809590959B01AC01BD01CF0108958D
:1010B000EE0FFF1F0024001C0BBE0790F691E02DE1
:1010C0000994D9D008F481E008950CD00FC107D15C
:1010D00040F0FED030F021F45F3F19F0F0C0511124
:1010E00039C1F3C014D198F39923C9F35523B1F34F
:1010F000951B550BBB27AA2762177307840738F087
:101100009F5F5F4F220F331F441FAA1FA9F333D0E5
:101110000E2E3AF0E0E830D091505040E695001C99
:10112000CAF729D0FE2F27D0660F771F881FBB1F55
:10113000261737074807AB07B0E809F0BB0B802D2F
:10114000BF01FF2793585F4F2AF09E3F510568F07B
:10115000B6C000C15F3FECF3983EDCF3869577950F
:101160006795B795F7959F5FC9F7880F911D96957D
:10117000879597F90895E1E0660F771F881FBB1FD9
:10118000621773078407BA0720F0621B730B840B86
:10119000BA0BEE1F88F7E095089504D06894B1115A
:1011A000D9C00895BCD088F09F5790F0B92F9927E7
:1011B000B751A0F0D1F0660F771F881F991F1AF062
:1011C000BA95C9F712C0B13081F0C3D0B1E008952B
:1011D000C0C0672F782F8827B85F39F0B93FCCF3AC
:1011E000869577956795B395D9F73EF49095809558
:1011F000709561957F4F8F4F9F4F0895E89409C078
:1012000097FB3EF490958095709561957F4F8F4F39
:101210009F4F9923A9F0F92F96E9BB279395F6954F
:10122000879577956795B795F111F8CFFAF4BB0FCD
:1012300011F460FF1BC06F5F7F4F8F4F9F4F16C031
:10124000882311F096E911C0772321F09EE8872FBB
:10125000762F05C0662371F096E8862F70E060E077
:101260002AF09A95660F771F881FDAF7880F9695F0
:10127000879597F90895990F0008550FAA0BE0E894
:10128000FEEF16161706E807F907C0F01216130648
:10129000E407F50798F0621B730B840B950B39F488
:1012A0000A2661F0232B242B252B21F408950A26EE
:1012B00009F4A140A6958FEF811D811D089597F92E
:1012C0009F6780E870E060E008959FEF80EC0895EC
:1012D00000240A9416161706180609060895002415
:1012E0000A9412161306140605060895092E03948F
:1012F000000C11F4882352F0BB0F40F4BF2B11F403
:1013000060FF04C06F5F7F4F8F4F9F4F089557FD61
:101310009058440F551F59F05F3F71F04795880F63
:1013200097FB991F61F09F3F79F0879508951216FA
:1013300013061406551FF2CF4695F1DF08C01616A6
:1013400017061806991FF1CF869571056105089457
:101350000895E894BB2766277727CB0197F908956E
:101360008ADF08F48FEF08950BD0C0CFB1DF28F0EB
:10137000B6DF18F0952309F0A2CFA7CF1124EACF4A
:10138000C6DFA0F3959FD1F3950F50E0551F629FE4
:10139000F001729FBB27F00DB11D639FAA27F00DCE
:1013A000B11DAA1F649F6627B00DA11D661F829FF5
:1013B0002227B00DA11D621F739FB00DA11D621FDA
:1013C000839FA00D611D221F749F3327A00D611DF7
:1013D000231F849F600D211D822F762F6A2F1124D9
:1013E0009F5750408AF0E1F088234AF0EE0FFF1F2C
:1013F000BB1F661F771F881F91505040A9F79E3F63
:10140000510570F05CCFA6CF5F3FECF3983EDCF364
:10141000869577956795B795F795E7959F5FC1F79F
:10142000FE2B880F911D9695879597F90895F99948
:10143000FECF92BD81BDF89A992780B50895262FD9
:10144000F999FECF1FBA92BD81BD20BD0FB6F894A9
:0E145000FA9AF99A0FBE01960895F894FFCF0C
:10145E000404040810040201010102040201040440
:10146E000810100804020101020402010110100408
:10147E0002041002041004020000190019001900E1
:10148E00190019001900320019001900190019006D
:10149E00190019003200880188014B024B02930299
:1014AE0093024B020B020B02ED01ED01B801B801E4
:1014BE008801000000000000000000000000000095
:1014CE00000000000000000000000000000003000B
:1014DE0003000300030003000300030003000300E6
:1014EE0003000300030003000300030019000C00B7
:1014FE000C00190019003200320019000C000C000B
:10150E0019001900320032001900190019001900D3
:10151E0019001900190019001900190019001900F5
:10152E0019001900190019001900190019001900E5
:10153E0032001900190019001900320000000000D5
:10154E00ED01ED01ED010B024B02ED01B801880139
:10155E0088018801B801ED01B8018801ED01ED01A6
:10156E000B024B024B020B02ED01B8018801880100
:10157E00B801ED01B801880188014B024B02ED0163
:10158E00B801ED014B02B801ED014B02ED01B801BE
:10159E000000000001000000000A15110A040000FE
:1015AE00041F11111F1F1F1F01030509090B1B1813
:1015BE000A0A1F11110E040400000A0004110E0085
:1015CE00000A1F1F0E040000040E0E0E1F00040062
:1015DE000103071F1F070301456E6A6F79207468A8
:1015EE0065204D757369630050757368204275747C
:1015FE00746F6E546F205374617274004D656D6F0D
:10160E0072697A65204E6F746573005265706561FC
:10161E007420746865204E6F74657300594F5520A1
:10162E0057494E00415544494F20504C41590047AF
:10163E00414D45204D4F444500437573746F6D20E9
:0A164E0063686172204C4344000001
:00000001FF
