:100000000C9446000C9465000C9465000C946500FB
:100010000C9465000C9465000C9465000C946500CC
:100020000C9465000C9465000C9465000C946500BC
:100030000C9465000C94D2000C9465000C9465003F
:100040000C9465000C9465000C9465000C9465009C
:100050000C9465000C9465000C9465000C9465008C
:100060000C9465000C9465000C9465000C9465007C
:100070000C9465000C9465000C9465000C9465006C
:100080000C9465000C9465000C94650011241FBE4F
:10009000CFEFD0E4DEBFCDBF11E0A0E0B1E0E2E4FD
:1000A000F7E000E00BBF02C007900D92A234B10749
:1000B000D9F711E0A2E4B1E001C01D92A734B10765
:1000C000E1F70E946F030C949F030C940000CF9300
:1000D000C82F8A3019F48DE00E9467009091C0000B
:1000E00095FFFCCFC093C60080E090E0CF910895CB
:1000F000442349F021E030E002C0220F331F6A950B
:10010000E2F7822B089521E030E002C0220F331F76
:100110006A95E2F720958223089521E030E002C03D
:10012000220F331F6A95E2F78223089560930E0130
:1001300070930F018093100190931101609342011D
:1001400070934301809344019093450108958BE09F
:10015000809381008DE790E09093890080938800E0
:1001600082E080936F00109285001092840080914D
:100170000E0190910F01A0911001B0911101809397
:10018000420190934301A0934401B09345018FB77E
:1001900080688FBF089510928100089581E0809358
:1001A000460108951F920F920FB60F9211240BB6BD
:1001B0000F922F933F934F935F936F937F938F9300
:1001C0009F93AF93BF93EF93FF93809142019091E0
:1001D0004301A0914401B09145010197A109B109E2
:1001E0008093420190934301A0934401B093450151
:1001F000892B8A2B8B2B91F40E94CE0080910E01CB
:1002000090910F01A0911001B091110180934201D2
:1002100090934301A0934401B0934501FF91EF9166
:10022000BF91AF919F918F917F916F915F914F910E
:100230003F912F910F900BBE0F900FBE0F901F900C
:1002400018950F931F93CF93DF93B62FA72FF82FF7
:10025000E92F022F132FD42FC52F04C0062F172FDD
:10026000D82FC92F6B2F7A2F8F2F9E2F202F312F12
:100270004D2F5C2F0E947D03B02FA12FFD2FEC2F5F
:10028000611571058105910549F7602F712F8D2F3B
:100290009C2FDF91CF911F910F91089540E064E072
:1002A0008FEF0E94780088B9000086B160E08095E9
:1002B0000E948D00811180C086B161E080950E940E
:1002C0008D0081117BC086B162E080950E948D0017
:1002D000811176C086B163E080950E948D00811106
:1002E00071C040E065E08FEF0E94780088B900009F
:1002F00086B160E080950E948D00811165C086B155
:1003000061E080950E948D00811160C086B162E03D
:1003100080950E948D0081115BC086B163E080955D
:100320000E948D00811156C040E066E08FEF0E9470
:10033000780088B9000086B160E080950E948D0049
:1003400081114AC086B161E080950E948D008111C3
:1003500045C086B162E080950E948D00811140C049
:1003600086B163E080950E948D0081113BC040E022
:1003700067E08FEF0E94780088B9000086B160E0E6
:1003800080950E948D0081112FC086B161E080951B
:100390000E948D0081112AC086B162E080950E9482
:1003A0008D00811125C086B163E080950E948D008B
:1003B0008823F9F084E4089581E3089584E308959F
:1003C00087E308958AE2089582E3089585E3089516
:1003D00088E3089580E3089583E3089586E308950C
:1003E00089E3089583E2089581E4089582E40895FD
:1003F00083E4089588B95E985D985F9A00005F98DD
:1004000083EF91E00197F1F700C00000089588B9EB
:100410005E9A5D985F9A00005F9883EF91E0019784
:10042000F1F700C0000008958FEF8AB987B987E817
:1004300093E10197F1F700C0000088E30E94FA0100
:100440008CE00E94FA0186E00E94FA0181E00E949D
:10045000FA0183EF91E00197F1F700C0000080E816
:100460000E94FA0108950F931F93CF93DF938C019D
:10047000C0E0D0E003C00E9407022196F801EC0F13
:10048000FD1F80818111F7CFDF91CF911F910F91D7
:100490000895CF93DF93EA01811108C0603134F4ED
:1004A000862F8F7080680E94FA0109C0813039F46C
:1004B00060312CF4862F8F70806C0E94FA01CE017F
:1004C0000E943302DF91CF91089581E00E94FA01EA
:1004D00080E80E94FA0108950F931F93CF9388300C
:1004E00090F48B01880F880F880F805C0E94FA01BE
:1004F000C0E007C0F801EC0FF11D80810E940702E7
:10050000CF5FC830B8F3CF911F910F91089540E0AD
:1005100050E00CC000002F5F3F4F02C020E030E0F1
:10052000273063E03607B4F34F5F5F4F4817590732
:10053000ACF308955E9888B95F9A00005F9882E0F6
:1005400090E00E948702089581E00E949A02089537
:10055000813120F481580E949A02089581550E94A9
:100560009A02089584E690E00E94870288E30E9440
:100570009A0286E00E949A028FE00E949A0281E02D
:100580000E949A028AE090E00E94870208955E9A93
:1005900088B95F9A00005F9881E090E00E9487022E
:1005A0000895EF92FF920F931F93CF93DF93182F2D
:1005B000EB010E94A4020EC001E0010F812F0E94F6
:1005C000A8027E018FEFE81AF80A88810E94C7020C
:1005D000102FE70188818111EFCFDF91CF911F911B
:1005E0000F91FF90EF900895CF93DF93CDB7DEB7D3
:1005F000E0970FB6F894DEBF0FBECDBF88E0E2E112
:10060000F1E0DE01119601900D928A95E1F788E004
:10061000EAE1F1E0DE01199601900D928A95E1F789
:1006200088E0E2E2F1E0DE01519601900D928A95B8
:10063000E1F788E0EAE2F1E0DE01599601900D92DF
:100640008A95E1F788E0E2E3F1E0DE01919601901E
:100650000D928A95E1F788E0EAE3F1E0DE019996F0
:1006600001900D928A95E1F70E941402BE016F5F1E
:100670007F4F80E00E946C02BE01675F7F4F81E088
:100680000E946C02BE01675F7F4F82E00E946C0295
:10069000BE01675F7F4F83E00E946C02BE016F5E08
:1006A0007F4F84E00E946C02BE01675E7F4F85E051
:1006B0000E946C02BE016F5D7F4F86E00E946C025B
:1006C000BE01675D7F4F87E00E946C02E0960FB627
:1006D000F894DEBF0FBECDBFDF91CF91089580EFBC
:1006E00081B98FE082B98FEF84B915B887B918B88E
:1006F0008AB91BB80E94F402FFCFA1E21A2EAA1BEE
:10070000BB1BFD010DC0AA1FBB1FEE1FFF1FA217C1
:10071000B307E407F50720F0A21BB30BE40BF50BBE
:10072000661F771F881F991F1A9469F76095709547
:10073000809590959B01AC01BD01CF010895F8947F
:02074000FFCFE9
:10074200000000020000000067000000000001003D
:100752000000040A051F14060A121F1F1F1F1F1F75
:100762001F1F04040E151F0E0A151F15151F111544
:100772001F0000000A0004110E00000A1F1F0E04D1
:02078200000075
:00000001FF
