:100000000C9446000C9465000C9465000C946500FB
:100010000C9465000C9465000C9465000C946500CC
:100020000C9465000C9465000C9465000C946500BC
:100030000C9465000C94FF000C9465000C94650012
:100040000C9465000C9465000C9465000C9465009C
:100050000C9465000C9465000C9465000C9465008C
:100060000C9465000C9465000C9465000C9465007C
:100070000C9465000C9465000C9465000C9465006C
:100080000C9465000C9465000C94650011241FBE4F
:10009000CFEFD0E4DEBFCDBF12E0A0E0B1E0E0E200
:1000A000FDE000E00BBF02C007900D92A234B10743
:1000B000D9F712E0A2E4B2E001C01D92A635B10763
:1000C000E1F70E948A040C948E060C94000040E034
:1000D00050E00CC000002F5F3F4F02C020E030E036
:1000E000273063E03607B4F34F5F5F4F4817590777
:1000F000ACF308955E9888B95F9A00005F9882E03B
:1001000090E00E946700089581E00E947A000895BF
:10011000813120F481580E947A00089581550E940F
:100120007A00089584E690E00E94670088E30E94C8
:100130007A0086E00E947A008FE00E947A0081E0D7
:100140000E947A008AE090E00E94670008955E9A1B
:1001500088B95F9A00005F9881E090E00E94670094
:100160000895EF92FF920F931F93CF93DF93182F71
:10017000EB010E9484000EC001E0010F812F0E945C
:1001800088007E018FEFE81AF80A88810E94A70094
:10019000102FE70188818111EFCFDF91CF911F915F
:1001A0000F91FF90EF9008958BE0809381008DE791
:1001B00090E0909389008093880082E080936F00A4
:1001C00010928500109284008091EE019091EF01D1
:1001D000A091F001B091F101809344029093450207
:1001E000A0934602B09347028FB780688FBF0895EF
:1001F00010928100089581E08093480208951F9233
:100200000F920FB60F9211240BB60F922F933F93BC
:100210004F935F936F937F938F939F93AF93BF930E
:10022000EF93FF938091440290914502A091460282
:10023000B09147020197A109B109809344029093BC
:100240004502A0934602B0934702892B8A2B8B2B41
:1002500091F40E94FB008091EE019091EF01A0913A
:10026000F001B091F1018093440290934502A09374
:100270004602B0934702FF91EF91BF91AF919F91DA
:100280008F917F916F915F914F913F912F910F903F
:100290000BBE0F900FBE0F901F9018956093EE014C
:1002A0007093EF018093F0019093F1016093440209
:1002B0007093450280934602909347020895CF922F
:1002C000DF92EF92FF926B017C0120914902309105
:1002D0004A0240914B0250914C020E94D80488235C
:1002E00009F458C020E030E0A901C701B6010E941E
:1002F000D804811106C0E1E9F0E080818870808334
:1003000005C0E1E9F0E080818360808328E539E37E
:1003100044E75FE3C701B6010E94D80488233CF498
:100320008FEF9FEF909399008093980027C020E073
:1003300034E244EF56E4C701B6010E9427061816BE
:100340002CF4109299001092980018C020E030E030
:1003500040E053E4C701B6010E942B069B01AC01AB
:1003600060E074E284EF9AE40E94DC040E94440599
:1003700061507109709399006093980010929500F4
:1003800010929400C0924902D0924A02E0924B022D
:10039000F0924C02FF90EF90DF90CF90089580E4B0
:1003A000809390008BE08093910060E070E0CB013F
:1003B0000E945F010895109290001092910008959C
:1003C00080B180915002909151028230910589F163
:1003D00028F4009769F00197B9F009C184309105BC
:1003E00009F4E6C008F4BDC0059709F4EDC0FFC0EC
:1003F00062EF71E081E00E94B10081E090E09093B3
:10040000510280935002F3C018990CC082E090E032
:1004100090935102809350026DE072E081E00E945F
:10042000B100E5C081E090E09093510280935002CA
:10043000DEC080914D0281112FC02091520230E028
:10044000E0914E02F0E0EE0FFF1FEA5BFE4F4081AD
:1004500051814217530738F022E030E030935102C7
:100460002093500219C042175307B0F490915302E1
:100470009F5F909353029E3038F024E030E0309339
:1004800051022093500208C023E030E03093510223
:1004900020935002109252028E3079F52091520230
:1004A00030E0E0914E02F0E0EE0FFF1FEE59FE4FFC
:1004B000408151814217530738F022E030E03093F9
:1004C00051022093500219C042175307B0F4909183
:1004D00053029F5F909353029E3038F024E030E047
:1004E000309351022093500208C023E030E0309353
:1004F000510220935002109252028C3109F077C0C1
:100500008091520290E0E0914E02F0E0EE0FFF1F6A
:10051000E258FE4F208131812817390738F082E0F8
:1005200090E0909351028093500261C028173907E0
:1005300008F05DC0809153028F5F809353028B302F
:1005400038F084E090E090935102809350024FC0C5
:1005500083E090E0909351028093500210925202F7
:1005600046C08091520290E0E0915302F0E0EE0F1D
:10057000FF1FE65DFE4F208131812817390738F0D3
:1005800083E090E0909351028093500230C028178E
:10059000390768F582E090E0909351028093500211
:1005A00080914E028F5F80934E02109252021FC0C4
:1005B00067E272E081E00E94B10085E090E09093F4
:1005C00051028093500213C0189B0DC085E090E04B
:1005D000909351028093500281E090E09093430207
:1005E0008093420204C010925102109250028091F6
:1005F00050029091510282309105E1F028F4009769
:1006000069F0019781F008958430910509F4ECC0F8
:1006100008F4DCC0059709F4F0C008951092430275
:1006200010924202089510924E02109252021092BD
:100630005302089580914D0281113EC0E0914E0217
:10064000F0E0EE0FFF1FE656FE4F608171818827B4
:1006500077FD8095982F0E9477050E945F01E091B9
:100660004E02F0E0EE0FFF1FE656FE4F80819181B3
:100670008D3E21E09207C9F044F4883821E09207CA
:1006800081F0883B914079F017C08B3422E09207CB
:1006900081F0833922E0920771F08B30924061F44F
:1006A00006C0589A09C0599A07C05A9A05C05B9A61
:1006B00003C05C9A01C05D9A80914D028E30F1F5C5
:1006C000E0914E02F0E0EE0FFF1FEA54FE4F608112
:1006D0007181882777FD8095982F0E9477050E9469
:1006E0005F01E0914E02F0E0EE0FFF1FEA54FE4F73
:1006F000808191818D3E21E09207C9F044F48838D1
:1007000021E0920781F0883B914079F017C08B344B
:1007100022E0920781F0833922E0920771F08B305A
:10072000924061F406C0589A09C0599A07C05A9A73
:1007300005C05B9A03C05C9A01C05D9A80914D022E
:100740008C31F1F5E0914E02F0E0EE0FFF1FEE521A
:10075000FE4F60817181882777FD8095982F0E94D8
:1007600077050E945F01E0914E02F0E0EE0FFF1F5F
:10077000EE52FE4F808191818D3E21E09207C9F0BB
:1007800044F4883821E0920781F0883B914079F069
:1007900017C08B3422E0920781F0833922E0920760
:1007A00071F08B30924061F406C0589A09C0599A92
:1007B00007C05A9A05C05B9A03C05C9A01C05D9A53
:1007C000809152028F5F80935202089560E070E042
:1007D000CB010E945F018BB180788BB9809152026E
:1007E0008F5F80935202089560E070E0CB010E9419
:1007F0005F018BB180788BB90895009B07C060E0E2
:1008000070E084EC93E40E945F010895019B07C0AF
:1008100060E070E08CED93E40E945F010895029B1C
:1008200007C060E070E886EF93E40E945F010895DE
:10083000039B07C060E070EC82E094E40E945F01DB
:100840000895049B07C060E070EC82E194E40E948C
:100850005F010895059B07C060E070EC84E294E4BA
:100860000E945F01089560E070E0CB010E945F018B
:100870000895CF9320B18091540290915502009732
:1008800019F0019741F044C081E090E09093550247
:10089000809354023DC02223C1F081E090E0909308
:1008A0005502809354028091420290914302019735
:1008B00061F480914D02E82FF0E0E050FF4F90810D
:1008C000921303C08F5F80934D028EE10E948800D7
:1008D00080914D02CDEC8C9F812D112486958695BB
:1008E0008695805D0E94A7008FE10E94880080911C
:1008F0004D028C9FC12D1124C695C695C695CC0F6F
:100900009C2F990F990FC90F8C1B805D0E94A70027
:10091000CF91089511B812B88EEF84B981E085B9EE
:100920008FEF87B918B88AB91BB81092510210928C
:1009300050020E94920062EF71E081E00E94B100DB
:100940006AE070E080E090E00E944E010E94D400D6
:100950000E94CF01812C912C5401C12CD12C760105
:100960008AE0C816D104E104F10428F00E94E001F5
:10097000C12CD12C76018CE2881681E09806A10466
:10098000B10428F00E943904812C912C54018091EB
:1009900048028823E1F3109248028AE0C80ED11C75
:1009A000E11CF11C8AE0880E911CA11CB11CD8CF5F
:1009B000D9D008F481E008950CD00FC107D140F0E0
:1009C000FED030F021F45F3F19F0F0C0511139C171
:1009D000F3C014D198F39923C9F35523B1F3951BB0
:1009E000550BBB27AA2762177307840738F09F5F50
:1009F0005F4F220F331F441FAA1FA9F333D00E2EBF
:100A00003AF0E0E830D091505040E695001CCAF72B
:100A100029D0FE2F27D0660F771F881FBB1F2617F0
:100A200037074807AB07B0E809F0BB0B802DBF01C3
:100A3000FF2793585F4F2AF09E3F510568F0B6C0DC
:100A400000C15F3FECF3983EDCF3869577956795A0
:100A5000B795F7959F5FC9F7880F911D9695879574
:100A600097F90895E1E0660F771F881FBB1F621793
:100A700073078407BA0720F0621B730B840BBA0B51
:100A8000EE1F88F7E095089504D06894B111D9C09D
:100A90000895BCD088F09F5790F0B92F9927B7518F
:100AA000A0F0D1F0660F771F881F991F1AF0BA9532
:100AB000C9F712C0B13081F0C3D0B1E00895C0C011
:100AC000672F782F8827B85F39F0B93FCCF3869528
:100AD00077956795B395D9F73EF490958095709585
:100AE00061957F4F8F4F9F4F0895E89409C097FB02
:100AF0003EF490958095709561957F4F8F4F9F4FF5
:100B00009923A9F0F92F96E9BB279395F695879538
:100B100077956795B795F111F8CFFAF4BB0F11F4FB
:100B200060FF1BC06F5F7F4F8F4F9F4F16C08823A2
:100B300011F096E911C0772321F09EE8872F762FD8
:100B400005C0662371F096E8862F70E060E02AF019
:100B50009A95660F771F881FDAF7880F9695879505
:100B600097F90895990F0008550FAA0BE0E8FEEFDA
:100B700016161706E807F907C0F012161306E40761
:100B8000F50798F0621B730B840B950B39F40A265A
:100B900061F0232B242B252B21F408950A2609F438
:100BA000A140A6958FEF811D811D089597F99F673C
:100BB00080E870E060E008959FEF80EC08950024E5
:100BC0000A941616170618060906089500240A94B2
:100BD00012161306140605060895092E0394000C38
:100BE00011F4882352F0BB0F40F4BF2B11F460FFC7
:100BF00004C06F5F7F4F8F4F9F4F089557FD9058F0
:100C0000440F551F59F05F3F71F04795880F97FBD0
:100C1000991F61F09F3F79F087950895121613068A
:100C20001406551FF2CF4695F1DF08C016161706B9
:100C30001806991FF1CF86957105610508940895EE
:100C4000E894BB2766277727CB0197F908958ADFB9
:100C500008F48FEF08950BD0C0CFB1DF28F0B6DFD6
:100C600018F0952309F0A2CFA7CF1124EACFC6DF51
:100C7000A0F3959FD1F3950F50E0551F629FF001AF
:100C8000729FBB27F00DB11D639FAA27F00DB11D08
:100C9000AA1F649F6627B00DA11D661F829F222791
:100CA000B00DA11D621F739FB00DA11D621F839F18
:100CB000A00D611D221F749F3327A00D611D231FEE
:100CC000849F600D211D822F762F6A2F11249F573C
:100CD00050408AF0E1F088234AF0EE0FFF1FBB1F5F
:100CE000661F771F881F91505040A9F79E3F5105FE
:100CF00070F05CCFA6CF5F3FECF3983EDCF38695B7
:100D000077956795B795F795E7959F5FC1F7FE2BA8
:100D1000880F911D9695879597F90895F894FFCFC0
:100D2000010110102020100808040402020104042C
:100D3000081010080402010102040201101004024C
:100D4000041002041002010000000300030003006D
:100D5000030003000300030003000300030003007B
:100D600003000300030019001900190019001900FD
:100D70001900320019001900190019001900190092
:100D80003200190019001900190019001900190082
:100D90001900190019001900190032003200190059
:100DA0001900190019001900320019001900190062
:100DB00019003200000000000000880188014B0289
:100DC0004B02930293024B020B020B02ED01ED0169
:100DD000B801B8018801ED01ED010B024B024B0295
:100DE0000B02ED01B80188018801B801ED01B801DD
:100DF00088014B024B02ED01B801ED014B02B80135
:100E0000ED014B02B8018801000000000000010064
:100E100000005075736820427574746F6E20546FB3
:100E2000202053746172742047616D65005472799B
:100E300020546F204D656D6F72697A652074686506
:100E4000204E6F7465730054727920546F20526580
:100E500070656174202020746865204E6F7465731E
:020E6000000090
:00000001FF
