:100000000C9454000C9473000C9473000C947300C3
:100010000C9473000C9473000C9473000C94730094
:100020000C9473000C9473000C9473000C94730084
:100030000C9473000C9441010C9473000C947300A5
:100040000C9473000C9473000C9473000C94730064
:100050000C9473000C9473000C9473000C94730054
:100060000C9473000C9473000C9473000C94730044
:100070000C9473000C9473000C9473000C94730034
:100080000C9473000C9473000C9473002F023A02CA
:100090005002E80210031D0349035B035E0369037A
:1000A000350443044C04880411241FBECFEFD0E470
:1000B000DEBFCDBF12E0A0E0B1E0E8EDFDE000E082
:1000C0000BBF02C007900D92A836B107D9F712E016
:1000D000A8E6B2E001C01D92AC37B107E1F70E947B
:1000E000DF040C94EA060C94000088B95E985D98D1
:1000F0005F9A8FEC97E00197F1F700C000005F98DE
:100100008FE99FE00197F1F700C00000089588B9DA
:100110005E9A5D985F9A8FEC97E00197F1F700C0C7
:1001200000005F988FE99FE00197F1F700C00000A1
:1001300008958FEF8AB987B98FE39CE90197F1F7AA
:1001400000C0000088E30E9475008CE00E947500EA
:1001500086E00E94750081E00E9475008FE99FE0B3
:100160000197F1F700C0000080E80E947500089533
:100170000F931F93CF93DF938C01C0E0D0E003C0B7
:100180000E9487002196F801EC0FFD1F80818111EC
:10019000F7CFDF91CF911F910F910895CF93DF9308
:1001A000EA01811108C0603134F4862F8F708068B5
:1001B0000E94750009C0813039F460312CF4862F1B
:1001C0008F70806C0E947500CE010E94B800DF9194
:1001D000CF91089581E00E94750080E80E9475002B
:1001E00008950F931F93CF93883090F48B01880F5D
:1001F000880F880F805C0E947500C0E007C0F8017E
:10020000EC0FF11D80810E948700CF5FC830B8F3EA
:10021000CF911F910F910895813120F481580E9450
:100220007500089581550E94750008958BE08093B4
:1002300081008DE790E0909389008093880082E0B0
:1002400080936F0010928500109284008091F001DD
:100250009091F101A091F201B091F30180936A02B3
:1002600090936B02A0936C02B0936D028FB780687D
:100270008FBF089510928100089581E080936E02EF
:1002800008951F920F920FB60F9211240BB60F9282
:100290002F933F934F935F936F937F938F939F938E
:1002A000AF93BF93EF93FF9380916A0290916B029B
:1002B000A0916C02B0916D020197A109B1098093E0
:1002C0006A0290936B02A0936C02B0936D02892B2B
:1002D0008A2B8B2B91F40E943D018091F00190912B
:1002E000F101A091F201B091F30180936A02909321
:1002F0006B02A0936C02B0936D02FF91EF91BF91DE
:10030000AF919F918F917F916F915F914F913F91AD
:100310002F910F900BBE0F900FBE0F901F9018954E
:100320006093F0017093F1018093F2019093F301D7
:1003300060936A0270936B0280936C0290936D02DB
:100340000895CF92DF92EF92FF926B017C01209192
:100350006F023091700240917102509172020E94BE
:100360003405882309F458C020E030E0A901C70112
:10037000B6010E943405811106C0E1E9F0E08081F8
:100380008870808305C0E1E9F0E08081836080832C
:1003900028E539E344E75FE3C701B6010E9434056D
:1003A00088233CF48FEF9FEF9093990080939800FF
:1003B00027C020E034E244EF56E4C701B6010E94B2
:1003C000830618162CF4109299001092980018C009
:1003D00020E030E040E053E4C701B6010E94870608
:1003E0009B01AC0160E074E284EF9AE40E9438055E
:1003F0000E94A00561507109709399006093980064
:100400001092950010929400C0926F02D0927002E8
:10041000E0927102F0927202FF90EF90DF90CF9025
:10042000089580E4809390008BE08093910060E0D9
:1004300070E0CB010E94A1010895109290001092EB
:100440009100089580B1E0917602F0917702E73053
:10045000F10508F024C1EA5BFF4F0C942B058CEFEB
:1004600091E00E94B80081E090E090937702809341
:10047000760215C118990DC082E090E09093770242
:10048000809376020E94EA0085E192E00E94B80023
:1004900006C181E090E09093770280937602FFC0DE
:1004A0008091730281112FC02091780230E0E09199
:1004B0007402F0E0EE0FFF1FE85BFE4F40815181B8
:1004C0004217530738F022E030E030937702209350
:1004D000760219C042175307B0F4909179029F5FDA
:1004E000909379029E3038F024E030E03093770228
:1004F0002093760208C023E030E030937702209307
:100500007602109278028E3079F52091780230E0F0
:10051000E0917402F0E0EE0FFF1FEC59FE4F4081B6
:1005200051814217530738F022E030E030937702D0
:100530002093760219C042175307B0F490917902C4
:100540009F5F909379029F3038F024E030E0309341
:1005500077022093760208C023E030E030937702E0
:1005600020937602109278028D3109F098C0809124
:10057000780290E0E0917402F0E0EE0FFF1FEE577A
:10058000FE4F208131812817390738F082E090E052
:10059000909377028093760282C02817390708F07B
:1005A0007EC0809179028F5F809379028B3038F022
:1005B00084E090E0909377028093760270C083E0AD
:1005C00090E090937702809376021092780267C051
:1005D0008091780290E0E0917902F0E0EE0FFF1F49
:1005E000E65DFE4F208131812817390738F083E01E
:1005F00090E0909377028093760251C028173907D4
:1006000008F04DC082E090E09093770280937602EC
:10061000809174028F5F80937402109278023FC0C1
:100620000E94EA008EE292E00E94B80085E090E02D
:10063000909377028093760232C0189B23C08091FA
:100640007302883269F085E090E09093770280939E
:10065000760281E090E090936902809368021FC067
:100660000E94EA0085E492E00E94B80064EF71E025
:100670008AE00E94F10086E090E0909377028093F8
:1006800076020DC081E090E090937702809376022D
:1006900006C0189904C01092770210927602E09179
:1006A0007602F0917702E730F10508F036C1E35B9E
:1006B000FF4F0C942B05109273020895109269025B
:1006C00010926802109274021092780210927902CD
:1006D00008958091730281113EC0E0917402F0E0B0
:1006E000EE0FFF1FE456FE4F60817181882777FD72
:1006F0008095982F0E94D3050E94A101E091740279
:10070000F0E0EE0FFF1FE456FE4F808191818D3E99
:1007100021E09207C9F044F4883821E0920781F083
:10072000883B914079F017C08B3422E0920781F02A
:10073000833922E0920771F08B30924061F406C059
:10074000589A09C0599A07C05A9A05C05B9A03C0C3
:100750005C9A01C05D9A809173028E30F1F5E09150
:100760007402F0E0EE0FFF1FE854FE4F60817181CC
:10077000882777FD8095982F0E94D3050E94A101BC
:10078000E0917402F0E0EE0FFF1FE854FE4F80810D
:1007900091818D3E21E09207C9F044F4883821E030
:1007A000920781F0883B914079F017C08B3422E0AA
:1007B000920781F0833922E0920771F08B309240EA
:1007C00061F406C0589A09C0599A07C05A9A05C0E0
:1007D0005B9A03C05C9A01C05D9A809173028D316F
:1007E000F1F5E0917402F0E0EE0FFF1FEA52FE4FC8
:1007F00060817181882777FD8095982F0E94D305AD
:100800000E94A101E0917402F0E0EE0FFF1FEA5296
:10081000FE4F808191818D3E21E09207C9F044F422
:10082000883821E0920781F0883B914079F017C029
:100830008B3422E0920781F0833922E0920771F035
:100840008B30924061F406C0589A09C0599A07C08B
:100850005A9A05C05B9A03C05C9A01C05D9A809168
:1008600078028F5F80937802089560E070E0CB019A
:100870000E94A1018BB180788BB9809178028F5F43
:1008800080937802089560E070E0CB010E94A1019E
:100890008BB180788BB90895009B07C060E070E051
:1008A00084EC93E40E94A1010895019B07C060E0DD
:1008B00070E08CED93E40E94A1010895029B07C0B3
:1008C00060E070E886EF93E40E94A1010895039B25
:1008D00007C060E070EC82E094E40E94A1010895FA
:1008E000049B07C060E070EC82E194E40E94A101E7
:1008F0000895059B07C060E070EC84E294E40E94D8
:10090000A101089560E070E0CB010E94A10108956B
:1009100060E070E0CB010E94A1010895CF9320B167
:1009200080917A0290917B02009719F0019741F033
:1009300044C081E090E090937B0280937A023DC0B6
:100940002223C1F081E090E090937B0280937A02B1
:100950008091680290916902019761F4809173021D
:10096000E82FF0E0E050FF4F9081921303C08F5FBB
:10097000809373028EE10E940C0180917302CDEC92
:100980008C9F812D1124869586958695805D0E9489
:1009900087008FE10E940C01809173028C9FC12D12
:1009A0001124C695C695C695CC0F9C2F990F990F0B
:1009B000C90F8C1B805D0E948700CF91089511B8EC
:1009C00012B88EEF84B981E085B98FEF87B918B876
:1009D0008AB91BB810927702109276020E94990091
:1009E0008DE492E00E94B8006AE070E080E090E060
:1009F0000E9490010E9416010E941102812C912CEC
:100A00005401C12CD12C76018AE0C816D104E1042E
:100A1000F10428F00E942202C12CD12C760188EC2E
:100A200088169104A104B10428F00E948E04812C40
:100A3000912C540180916E028823E1F310926E0292
:100A40008AE0C80ED11CE11CF11C8AE0880E911CC2
:100A5000A11CB11CD9CFEE0FFF1F0024001C0BBE40
:100A60000790F691E02D0994D9D008F481E008951B
:100A70000CD00FC107D140F0FED030F021F45F3F21
:100A800019F0F0C0511139C1F3C014D198F3992372
:100A9000C9F35523B1F3951B550BBB27AA27621742
:100AA0007307840738F09F5F5F4F220F331F441F87
:100AB000AA1FA9F333D00E2E3AF0E0E830D09150BF
:100AC0005040E695001CCAF729D0FE2F27D0660FAC
:100AD000771F881FBB1F261737074807AB07B0E8EB
:100AE00009F0BB0B802DBF01FF2793585F4F2AF001
:100AF0009E3F510568F0B6C000C15F3FECF3983EE1
:100B0000DCF3869577956795B795F7959F5FC9F75D
:100B1000880F911D9695879597F90895E1E0660FE6
:100B2000771F881FBB1F621773078407BA0720F05F
:100B3000621B730B840BBA0BEE1F88F7E0950895C8
:100B400004D06894B111D9C00895BCD088F09F57E3
:100B500090F0B92F9927B751A0F0D1F0660F771F09
:100B6000881F991F1AF0BA95C9F712C0B13081F0E9
:100B7000C3D0B1E00895C0C0672F782F8827B85F31
:100B800039F0B93FCCF3869577956795B395D9F74A
:100B90003EF490958095709561957F4F8F4F9F4F54
:100BA0000895E89409C097FB3EF490958095709560
:100BB00061957F4F8F4F9F4F9923A9F0F92F96E9A9
:100BC000BB279395F695879577956795B795F1111E
:100BD000F8CFFAF4BB0F11F460FF1BC06F5F7F4FBB
:100BE0008F4F9F4F16C0882311F096E911C07723CD
:100BF00021F09EE8872F762F05C0662371F096E8D6
:100C0000862F70E060E02AF09A95660F771F881FA4
:100C1000DAF7880F9695879597F90895990F000848
:100C2000550FAA0BE0E8FEEF16161706E807F907BE
:100C3000C0F012161306E407F50798F0621B730B59
:100C4000840B950B39F40A2661F0232B242B252BDA
:100C500021F408950A2609F4A140A6958FEF811D7D
:100C6000811D089597F99F6780E870E060E008951E
:100C70009FEF80EC089500240A94161617061806B4
:100C80000906089500240A94121613061406050690
:100C90000895092E0394000C11F4882352F0BB0F21
:100CA00040F4BF2B11F460FF04C06F5F7F4F8F4F84
:100CB0009F4F089557FD9058440F551F59F05F3FBF
:100CC00071F04795880F97FB991F61F09F3F79F06E
:100CD00087950895121613061406551FF2CF4695F0
:100CE000F1DF08C0161617061806991FF1CF869572
:100CF0007105610508940895E894BB276627772756
:100D0000CB0197F908958ADF08F48FEF08950BD08F
:100D1000C0CFB1DF28F0B6DF18F0952309F0A2CFDD
:100D2000A7CF1124EACFC6DFA0F3959FD1F3950F8B
:100D300050E0551F629FF001729FBB27F00DB11D5F
:100D4000639FAA27F00DB11DAA1F649F6627B00DEF
:100D5000A11D661F829F2227B00DA11D621F739FD8
:100D6000B00DA11D621F839FA00D611D221F749FE6
:100D70003327A00D611D231F849F600D211D822F2D
:100D8000762F6A2F11249F5750408AF0E1F0882374
:100D90004AF0EE0FFF1FBB1F661F771F881F915081
:100DA0005040A9F79E3F510570F05CCFA6CF5F3F42
:100DB000ECF3983EDCF3869577956795B795F795B4
:100DC000E7959F5FC1F7FE2B880F911D969587953C
:080DD00097F90895F894FFCF94
:100DD8000101101020201008080404020201040474
:100DE8000810100804020101020402010110100495
:100DF80002041002041002010000030003000300B3
:100E080003000300030003000300030003000300C2
:100E1800030003000300030019001900190019005A
:100E280019001900320019001900190019001900D9
:100E380019003200190019001900190019001900C9
:100E480019001900190019001900190019001900D2
:100E580019001900190019001900190032001900A9
:100E680019001900190032000000000088018801EB
:100E78004B024B02930293024B020B020B02ED0151
:100E8800ED01B801B8018801ED01ED010B024B023B
:100E98004B020B02ED01B80188018801B801ED0190
:100EA800B801880188014B024B02ED01B801ED0140
:100EB8004B02B801ED014B02B801880100000000A7
:100EC80001000000040A111111110A045075736819
:100ED80020427574746F6E546F205374617274205D
:100EE80047616D650054727920546F204D656D6FB0
:100EF80072697A65746865204E6F74657300547200
:100F08007920546F20526570656154746865204E6D
:100F18006F74657300594F552057494E00507573CB
:100F28006820427574746F6E20546F20205374616A
:080F380072742047616D650031
:00000001FF
