:100000000C9446000C9465000C9465000C946500FB
:100010000C9465000C9465000C9465000C946500CC
:100020000C9465000C9465000C9465000C946500BC
:100030000C9465000C94FF000C9465000C94650012
:100040000C9465000C9465000C9465000C9465009C
:100050000C9465000C9465000C9465000C9465008C
:100060000C9465000C9465000C9465000C9465007C
:100070000C9465000C9465000C9465000C9465006C
:100080000C9465000C9465000C94650011241FBE4F
:10009000CFEFD0E4DEBFCDBF11E0A0E0B1E0EAE3F6
:1000A000FBE000E00BBF02C007900D92A03DB1073E
:1000B000D9F711E0A0EDB1E001C01D92A43EB10757
:1000C000E1F70E9499030C949B050C94000040E01A
:1000D00050E00CC000002F5F3F4F02C020E030E036
:1000E000273063E03607B4F34F5F5F4F4817590777
:1000F000ACF308955E9888B95F9A00005F9882E03B
:1001000090E00E946700089581E00E947A000895BF
:10011000813120F481580E947A00089581550E940F
:100120007A00089584E690E00E94670088E30E94C8
:100130007A0086E00E947A008FE00E947A0081E0D7
:100140000E947A008AE090E00E94670008955E9A1B
:1001500088B95F9A00005F9881E090E00E94670094
:100160000895EF92FF920F931F93CF93DF93182F71
:10017000EB010E9484000EC001E0010F812F0E945C
:1001800088007E018FEFE81AF80A88810E94A70094
:10019000102FE70188818111EFCFDF91CF911F915F
:1001A0000F91FF90EF9008958BE0809381008DE791
:1001B00090E0909389008093880082E080936F00A4
:1001C000109285001092840080917D0190917E01B3
:1001D000A0917F01B09180018093D2019093D301CF
:1001E000A093D401B093D5018FB780688FBF0895D5
:1001F00010928100089581E08093D60108951F92A6
:100200000F920FB60F9211240BB60F922F933F93BC
:100210004F935F936F937F938F939F93AF93BF930E
:10022000EF93FF938091D2019091D301A091D401DB
:10023000B091D5010197A109B1098093D2019093A2
:10024000D301A093D401B093D501892B8A2B8B2B9A
:1002500091F40E94FB0080917D0190917E01A0911C
:100260007F01B09180018093D2019093D301A0933C
:10027000D401B093D501FF91EF91BF91AF919F91C0
:100280008F917F916F915F914F913F912F910F903F
:100290000BBE0F900FBE0F901F90189560937D01BD
:1002A00070937E0180937F01909380016093D201CF
:1002B0007093D3018093D4019093D5010895CF9288
:1002C000DF92EF92FF926B017C012091D701309178
:1002D000D8014091D9015091DA010E94E5038823A9
:1002E00009F458C020E030E0A901C701B6010E941E
:1002F000E503811106C0E1E9F0E080818870808328
:1003000005C0E1E9F0E080818360808328E539E37E
:1003100044E75FE3C701B6010E94E50388233CF48C
:100320008FEF9FEF909399008093980027C020E073
:1003300034E244EF56E4C701B6010E9434051816B2
:100340002CF4109299001092980018C020E030E030
:1003500040E053E4C701B6010E9438059B01AC019F
:1003600060E074E284EF9AE40E94E9030E94510481
:1003700061507109709399006093980010929500F4
:1003800010929400C092D701D092D801E092D90186
:10039000F092DA01FF90EF90DF90CF90089580E423
:1003A000809390008BE08093910060E070E0CB013F
:1003B0000E945F010895109290001092910008959C
:1003C00080B18091DE019091DF018230910589F149
:1003D00028F4009769F00197B9F0A2C08430910524
:1003E00009F47FC008F456C0059709F486C098C088
:1003F00061E871E081E00E94B10081E090E09093BB
:10040000DF018093DE018CC000990CC082E090E097
:100410009093DF018093DE016CE971E081E00E943E
:10042000B1007EC081E090E09093DF018093DE0117
:1004300077C08091E00190E0E091DC01F0E0EE0F08
:10044000FF1FE75DFE4F208131812817390738F003
:1004500082E090E09093DF018093DE0161C0281775
:10046000390708F05DC08091E1018F5F8093E10161
:100470008E3038F084E090E09093DF018093DE01CD
:100480004FC083E090E09093DF018093DE011092F3
:10049000E00146C08091E00190E0E091E101F0E0F0
:1004A000EE0FFF1FE35FFE4F2081318128173907D0
:1004B00038F083E090E09093DF018093DE0130C05C
:1004C0002817390768F582E090E09093DF01809368
:1004D000DE018091DC018F5F8093DC011092E001EE
:1004E0001FC066EB71E081E00E94B10085E090E002
:1004F0009093DF018093DE0113C0009B0DC085E067
:1005000090E09093DF018093DE0181E090E0909392
:10051000D1018093D00104C01092DF011092DE015E
:100520008091DE019091DF0182309105E1F028F4A5
:10053000009769F0019781F008958430910509F4DE
:1005400064C008F454C0059709F468C00895109277
:10055000D1011092D00108951092DC011092E001B7
:100560001092E1010895E091DC01F0E0EE0FFF1F31
:10057000EB5BFE4F60817181882777FD8095982F16
:100580000E9484040E945F01E091DC01F0E0EE0F24
:10059000FF1FEB5BFE4F808191818D3E21E0920732
:1005A000C9F044F4883821E0920781F0883B9140FB
:1005B00079F017C08B3422E0920781F0833922E072
:1005C000920771F08B30924061F406C0589A09C0CE
:1005D000599A07C05A9A05C05B9A03C05C9A01C039
:1005E0005D9A8091E0018F5F8093E001089560E063
:1005F00070E0CB010E945F018BB180788BB9809154
:10060000E0018F5F8093E001089560E070E0CB012E
:100610000E945F018BB180788BB90895019B07C060
:1006200060E070E084EC93E40E945F010895029B17
:1006300007C060E070E08CED93E40E945F010895D4
:10064000039B07C060E070E886EF93E40E945F01BF
:100650000895049B07C060E070EC82E094E40E947F
:100660005F010895059B07C060E070EC82E194E4AF
:100670000E945F010895069B07C060E070EC84E271
:1006800094E40E945F01089560E070E0CB010E9455
:100690005F010895CF9320B18091E2019091E30131
:1006A000009719F0019741F042C081E090E09093EB
:1006B000E3018093E2013BC081E090E09093E3018D
:1006C0008093E2018091D0019091D101019761F472
:1006D0008091DB01E82FF0E0E050FF4F9081921312
:1006E00003C08F5F8093DB018EE10E9488008091C0
:1006F000DB01CDEC8C9F812D112486958695869506
:10070000805D0E94A7008FE10E9488008091DB013C
:100710008C9FC12D1124C695C695C695CC0F9C2FD4
:10072000990F990FC90F8C1B805D0E94A700CF9174
:10073000089511B881E082B98FEF84B915B887B9EF
:1007400018B88AB91BB81092DF011092DE010E941E
:10075000920061E871E081E00E94B1006AE070E01F
:1007600080E090E00E944E010E94D4000E94CF01E0
:10077000812C912C5401C12CD12C76018AE0C81611
:10078000D104E104F10428F00E94E001C12CD12C35
:10079000760188EC88169104A104B10428F00E9427
:1007A0004A03812C912C54018091D6018823E1F3D6
:1007B0001092D6018AE0C80ED11CE11CF11C8AE01F
:1007C000880E911CA11CB11CD9CFD9D008F481E0AE
:1007D00008950CD00FC107D140F0FED030F021F4C5
:1007E0005F3F19F0F0C0511139C1F3C014D198F333
:1007F0009923C9F35523B1F3951B550BBB27AA27A2
:1008000062177307840738F09F5F5F4F220F331F13
:10081000441FAA1FA9F333D00E2E3AF0E0E830D0DF
:1008200091505040E695001CCAF729D0FE2F27D0E2
:10083000660F771F881FBB1F261737074807AB07B0
:10084000B0E809F0BB0B802DBF01FF2793585F4F25
:100850002AF09E3F510568F0B6C000C15F3FECF33F
:10086000983EDCF3869577956795B795F7959F5FEA
:10087000C9F7880F911D9695879597F90895E1E03E
:10088000660F771F881FBB1F621773078407BA079D
:1008900020F0621B730B840BBA0BEE1F88F7E095F8
:1008A000089504D06894B111D9C00895BCD088F0DF
:1008B0009F5790F0B92F9927B751A0F0D1F0660F4C
:1008C000771F881F991F1AF0BA95C9F712C0B13067
:1008D00081F0C3D0B1E00895C0C0672F782F88277A
:1008E000B85F39F0B93FCCF3869577956795B395A6
:1008F000D9F73EF490958095709561957F4F8F4F15
:100900009F4F0895E89409C097FB3EF49095809519
:10091000709561957F4F8F4F9F4F9923A9F0F92FC5
:1009200096E9BB279395F695879577956795B79543
:10093000F111F8CFFAF4BB0F11F460FF1BC06F5F29
:100940007F4F8F4F9F4F16C0882311F096E911C03B
:10095000772321F09EE8872F762F05C0662371F05C
:1009600096E8862F70E060E02AF09A95660F771F70
:10097000881FDAF7880F9695879597F90895990F4C
:100980000008550FAA0BE0E8FEEF16161706E80759
:10099000F907C0F012161306E407F50798F0621B7A
:1009A000730B840B950B39F40A2661F0232B242B4F
:1009B000252B21F408950A2609F4A140A6958FEF6E
:1009C000811D811D089597F99F6780E870E060E0C0
:1009D00008959FEF80EC089500240A9416161706D8
:1009E00018060906089500240A9412161306140620
:1009F00005060895092E0394000C11F4882352F083
:100A0000BB0F40F4BF2B11F460FF04C06F5F7F4F3A
:100A10008F4F9F4F089557FD9058440F551F59F021
:100A20005F3F71F04795880F97FB991F61F09F3FDB
:100A300079F087950895121613061406551FF2CF04
:100A40004695F1DF08C0161617061806991FF1CF54
:100A500086957105610508940895E894BB2766277B
:100A60007727CB0197F908958ADF08F48FEF08956F
:100A70000BD0C0CFB1DF28F0B6DF18F0952309F016
:100A8000A2CFA7CF1124EACFC6DFA0F3959FD1F361
:100A9000950F50E0551F629FF001729FBB27F00D2C
:100AA000B11D639FAA27F00DB11DAA1F649F662781
:100AB000B00DA11D661F829F2227B00DA11D621FD0
:100AC000739FB00DA11D621F839FA00D611D221F8A
:100AD000749F3327A00D611D231F849F600D211D6E
:100AE000822F762F6A2F11249F5750408AF0E1F011
:100AF00088234AF0EE0FFF1FBB1F661F771F881F5A
:100B000091505040A9F79E3F510570F05CCFA6CFA1
:100B10005F3FECF3983EDCF3869577956795B79544
:100B2000F795E7959F5FC1F7FE2B880F911D96956E
:0A0B3000879597F90895F894FFCF18
:100B3A00030321214141211111090905050300037C
:100B4A000003000300030003000300030003000383
:100B5A00000300030003000300190019001900191B
:100B6A00001900190032001900190019001900199A
:100B7A000019003200880188014B024B029302934C
:100B8A00024B020B020B02ED01ED01B801B801881C
:100B9A00018801B801B801ED01ED010B020B024B0E
:100BAA0002930293024B024B028801880101000062
:100BBA00005075736820427574746F6E20546F20EC
:100BCA002053746172742047616D650054727920F4
:100BDA00546F204D656D6F72697A6520746865205F
:100BEA004E6F7465730054727920546F2052657089
:100BFA00656174202020746865204E6F74657300E7
:00000001FF
