:100000000C9454000C9473000C9473000C947300C3
:100010000C9473000C9473000C9473000C94730094
:100020000C9473000C9473000C9473000C94730084
:100030000C9473000C943D010C9473000C947300A9
:100040000C9473000C9473000C9473000C94730064
:100050000C9473000C9473000C9473000C94730054
:100060000C9473000C9473000C9473000C94730044
:100070000C9473000C9473000C9473000C94730034
:100080000C9473000C9473000C947300A602B402D9
:10009000CD0268039003A303CD03DF03E203ED0366
:1000A000BB04C904D2040E0511241FBECFEFD0E457
:1000B000DEBFCDBF12E0A0E0B1E0EEEDF1E100E087
:1000C0000BBF02C007900D92AC39B107D9F712E00F
:1000D000ACE9B2E001C01D92A53BB107E1F70E9477
:1000E000A1060C94ED080C94000088B95E985D9808
:1000F0005F9A82E08A95F1F700C05F988FE99FE0F0
:100100000197F1F700C00000089588B95E9A5D98E4
:100110005F9A82E08A95F1F700C05F988FE99FE0CF
:100120000197F1F700C0000008958FEF8AB987B9F1
:100130008FE39CE90197F1F700C0000088E30E947B
:1001400075008CE00E94750086E00E94750081E0D9
:100150000E9475008FE99FE00197F1F700C0000051
:1001600080E80E94750008950F931F93CF93DF934B
:100170008C01C0E0D0E003C00E9485002196F80108
:10018000EC0FFD1F80818111F7CFDF91CF911F917F
:100190000F910895CF93DF93EA01811108C0603178
:1001A00034F4862F8F7080680E94750009C08130FA
:1001B00039F460312CF4862F8F70806C0E947500AA
:1001C000CE010E94B400DF91CF91089581E00E949A
:1001D000750080E80E94750008950F931F93CF93D8
:1001E000883090F48B01880F880F880F805C0E9404
:1001F0007500C0E007C0F801EC0FF11D80810E947E
:100200008500CF5FC830B8F3CF911F910F9108954B
:10021000813120F481580E947500089581550E9413
:10022000750008958BE0809381008DE790E09093B6
:1002300089008093880082E080936F00109285008F
:10024000109284008091F0019091F101A091F2014F
:10025000B091F30180939E0290939F02A093A0021D
:10026000B093A1028FB780688FBF0895109281006C
:10027000089581E08093A20208951F920F920FB615
:100280000F9211240BB60F922F933F934F935F93CE
:100290006F937F938F939F93AF93BF93EF93FF934E
:1002A00080919E0290919F02A091A002B091A10224
:1002B0000197A109B10980939E0290939F02A09398
:1002C000A002B093A102892B8A2B8B2B91F40E9460
:1002D00039018091F0019091F101A091F201B0916A
:1002E000F30180939E0290939F02A093A002B0938B
:1002F000A102FF91EF91BF91AF919F918F917F915B
:100300006F915F914F913F912F910F900BBE0F9086
:100310000FBE0F901F9018956093F0017093F1013C
:100320008093F2019093F30160939E0270939F0279
:100330008093A0029093A1020895CF92DF92EF9252
:10034000FF926B017C012091A3023091A4024091A5
:10035000A5025091A6020E942107882309F458C0E3
:1003600020E030E0A901C701B6010E9421078111F8
:1003700006C0E1E9F0E080818870808305C0E1E992
:10038000F0E080818360808328E539E344E75FE320
:10039000C701B6010E94210788233CF48FEF9FEF2D
:1003A000909399008093980027C020E034E244EFB6
:1003B00056E4C701B6010E94700818162CF410927A
:1003C00099001092980018C020E030E040E053E41B
:1003D000C701B6010E9474089B01AC0160E074E2A1
:1003E00084EF9AE40E9425070E948D0761507109ED
:1003F0007093990060939800109295001092940069
:10040000C092A302D092A402E092A502F092A602AA
:10041000FF90EF90DF90CF90089580E4809390005C
:100420008BE08093910060E070E0CB010E949D0121
:10043000089510929000109291000895CF93DF9349
:10044000CDB7DEB7E0970FB6F894DEBF0FBECDBFD5
:1004500088E0E4EFF1E0DE01119601900D928A95BB
:10046000E1F788E0ECEFF1E0DE01199601900D92E2
:100470008A95E1F788E0E4E0F2E0DE015196019030
:100480000D928A95E1F788E0ECE0F2E0DE01599602
:1004900001900D928A95E1F788E0E4E1F2E0DE0157
:1004A000919601900D928A95E1F788E0ECE1F2E0F7
:1004B000DE01999601900D928A95E1F70E949500D0
:1004C000BE016F5F7F4F80E00E94ED00BE01675F5D
:1004D0007F4F81E00E94ED00BE01675F7F4F82E0A9
:1004E0000E94ED00BE01675F7F4F83E00E94ED0038
:1004F000BE016F5E7F4F84E00E94ED00BE01675E2B
:100500007F4F85E00E94ED00BE016F5D7F4F86E06A
:100510000E94ED00BE01675D7F4F87E00E94ED0005
:10052000E0960FB6F894DEBF0FBECDBFDF91CF913E
:10053000089580B1E091AE02F091AF02E730F1058D
:1005400008F031C1EA5BFF4F0C94180784E392E096
:100550000E94B40084E00E94850081E090E09093C6
:10056000AF028093AE021FC1189910C082E090E0E4
:100570009093AF028093AE020E94E60088E492E07E
:100580000E94B40082E00E9485000DC181E090E0ED
:100590009093AF028093AE0206C18091AB028E3081
:1005A00078F52091B00230E0E091AC02F0E0EE0F7F
:1005B000FF1FE85BFE4F408151814217530738F01F
:1005C00022E030E03093AF022093AE0219C0421710
:1005D0005307B0F49091B1029F5F9093B1029E30A7
:1005E00038F024E030E03093AF022093AE0208C030
:1005F00023E030E03093AF022093AE021092B002BD
:1006000092EF980F9F3078F52091B00230E0E091A2
:10061000AC02F0E0EE0FFF1FEC59FE4F408151811C
:100620004217530738F022E030E03093AF022093B6
:10063000AE0219C042175307B0F49091B1029F5F08
:100640009093B1029F3038F024E030E03093AF0255
:100650002093AE0208C023E030E03093AF02209335
:10066000AE021092B0028D518B3008F09CC0809188
:10067000B00290E0E091AC02F0E0EE0FFF1FEE5709
:10068000FE4F208131812817390738F082E090E051
:100690009093AF028093AE0286C02817390708F006
:1006A00082C08091B1028F5F8093B1028B3038F0AD
:1006B00084E090E09093AF028093AE0274C083E038
:1006C00090E09093AF028093AE021092B0026BC0A4
:1006D0008091B00290E0E091B102F0E0EE0FFF1FD8
:1006E000E65DFE4F208131812817390738F083E01D
:1006F00090E09093AF028093AE0255C0281739075F
:1007000008F051C082E090E09093AF028093AE0277
:100710008091AC028F5F8093AC021092B00243C014
:100720000E94E60087E592E00E94B40080EC0E94FF
:10073000750083E00E94850085E090E09093AF0211
:100740008093AE0230C0189B21C08091AB028832EA
:1007500069F085E090E09093AF028093AE0281E073
:1007600090E090939D0280939C021DC00E94E60041
:1007700088E692E00E94B40087E00E94850086E04F
:1007800090E09093AF028093AE020DC081E090E0C4
:100790009093AF028093AE0206C0189904C01092E5
:1007A000AF021092AE02E091AE02F091AF02E730DC
:1007B000F10508F038C1E35BFF4F0C941807109265
:1007C000AB02089510929D0210929C021092AC020E
:1007D0001092B0021092B10208958091AB028E3057
:1007E000F0F5E091AC02F0E0EE0FFF1FE456FE4F93
:1007F00060817181882777FD8095982F0E94C007BE
:100800000E949D01E091AC02F0E0EE0FFF1FE45664
:10081000FE4F808191818D3E21E09207C9F044F422
:10082000883821E0920781F0883B914079F017C029
:100830008B3422E0920781F0833922E0920771F035
:100840008B30924061F406C0589A09C0599A07C08B
:100850005A9A05C05B9A03C05C9A01C05D9A809168
:10086000AB028E508F30F0F5E091AC02F0E0EE0F6D
:10087000FF1FE854FE4F60817181882777FD8095C6
:10088000982F0E94C0070E949D01E091AC02F0E009
:10089000EE0FFF1FE854FE4F808191818D3E21E0D5
:1008A0009207C9F044F4883821E0920781F0883B30
:1008B000914079F017C08B3422E0920781F08339A0
:1008C00022E0920771F08B30924061F406C0589A92
:1008D00009C0599A07C05A9A05C05B9A03C05C9A2E
:1008E00001C05D9A8091AB028D518B30F0F5E091A3
:1008F000AC02F0E0EE0FFF1FEA52FE4F6081718103
:10090000882777FD8095982F0E94C0070E949D013F
:10091000E091AC02F0E0EE0FFF1FEA52FE4F808143
:1009200091818D3E21E09207C9F044F4883821E09E
:10093000920781F0883B914079F017C08B3422E018
:10094000920781F0833922E0920771F08B30924058
:1009500061F406C0589A09C0599A07C05A9A05C04E
:100960005B9A03C05C9A01C05D9A8091B0028F5F70
:100970008093B002089560E070E0CB010E949D0179
:100980008BB180788BB98091B0028F5F8093B00279
:10099000089560E070E0CB010E949D018BB18078EA
:1009A0008BB90895009B07C060E070E084EC93E48D
:1009B0000E949D010895019B07C060E070E08CEDEE
:1009C00093E40E949D010895029B07C060E070E8D7
:1009D00086EF93E40E949D010895039B07C060E0A9
:1009E00070EC82E094E40E949D010895049B07C08E
:1009F00060E070EC82E194E40E949D010895059B03
:100A000007C060E070EC84E294E40E949D010895C8
:100A100060E070E0CB010E949D01089560E070E00D
:100A2000CB010E949D0108958F929F92AF92BF9239
:100A3000CF92DF92EF92FF92CF93C0B18091B2023A
:100A40009091B302009719F0019741F0CAC081E07C
:100A500090E09093B3028093B202C3C082E090E032
:100A60000E94D70890E0A0E0B0E08093A7029093A6
:100A7000A802A093A902B093AA02CC2369F121E0B5
:100A800030E03093B3022093B20220919C02309167
:100A90009D022130310501F52091AB02E22FF0E0FB
:100AA000E050FF4F30813C1304C02F5F2093AB0216
:100AB00013C02E3018F41092AB020EC032EF320F7A
:100AC0003F3020F42EE02093AB0206C02D512B3096
:100AD00018F42DE12093AB022091AB024FEF50E0D0
:100AE000421B5109662757FD6095762F4817590715
:100AF0006A077B0790F4BC01CD016150710981093F
:100B000091096093A7027093A8028093A902909321
:100B1000AA0282E090E00E94DF088CE10E940801B6
:100B20008091AB02CDEC8C9F812D1124869586950A
:100B30008695805D0E9485008DE10E94080180916C
:100B4000AB028C9FC12D1124C695C695C695CC0FBE
:100B50009C2F990F990FC90F8C1B805D0E948500F7
:100B60008FE10E940801C12CD12C7601CA9480919A
:100B7000A7029091A802A091A902B091AA02A70190
:100B80009601281B390B4A0B5B0BCA01B9010F2ECA
:100B9000FAE08F2E912CA12CB12CF02DA5019401FF
:100BA0000E94F60680E3820F0E94850080E20E9488
:100BB00008018091A7029091A802A091A902B0918A
:100BC000AA02A7019601281B390B4A0B5B0BCA012D
:100BD000B901A50194010E94F60680E3860F0E94E8
:100BE0008500CF91FF90EF90DF90CF90BF90AF90B6
:100BF0009F908F9008951F93CF93DF93CDB7DEB76B
:100C0000C054D1090FB6F894DEBF0FBECDBF88E047
:100C1000E4EFF1E0DE01119601900D928A95E1F783
:100C200088E0ECEFF1E0DE01199601900D928A95D3
:100C3000E1F788E0E4E2F2E0DE01519601900D92E6
:100C40008A95E1F788E0ECE2F2E0DE015996019046
:100C50000D928A95E1F788E0E4E0F2E0DE019196FA
:100C600001900D928A95E1F788E0ECE0F2E0DE0178
:100C7000999601900D928A95E1F788E0E4E1F2E01F
:100C8000DE01D19601900D928A95E1F788E0ECE1C2
:100C9000F2E0DE01D99601900D928A95E1F70E946B
:100CA0009500BE016F5F7F4F80E00E94ED00BE01A6
:100CB000675F7F4F81E00E94ED00BE016F5E7F4F56
:100CC00082E00E94ED00BE01675E7F4F83E00E94DC
:100CD000ED00BE016F5D7F4F84E00E94ED00BE011C
:100CE000675D7F4F85E00E94ED00BE016F5C7F4F26
:100CF00086E00E94ED00BE01675C7F4F87E00E94A6
:100D0000ED0080E80E94750080E792E00E94B40048
:100D100080EC0E94750010E007C0812F0E948500C2
:100D200080E20E9485001F5F1830BCF3C05CDF4F7B
:100D30000FB6F894DEBF0FBECDBFDF91CF911F91EC
:100D4000089511B812B88EEF84B981E085B98FEF9C
:100D500087B918B88AB91BB81092AF021092AE02C8
:100D60001092B3021092B2020E9495000E94FB05FD
:100D70000E94E60080E892E00E94B4006AE070E021
:100D800080E090E00E948C010E9412010E940D02FE
:100D9000812C912C5401C12CD12C76018AE0C816EB
:100DA000D104E104F10428F00E949902C12CD12C55
:100DB00076018CE2881681E09806A104B10428F03F
:100DC0000E941405812C912C54018091A202882349
:100DD000E1F31092A2028AE0C80ED11CE11CF11CC2
:100DE0008AE0880E911CA11CB11CD8CFA1E21A2E5A
:100DF000AA1BBB1BFD010DC0AA1FBB1FEE1FFF1FBF
:100E0000A217B307E407F50720F0A21BB30BE40B0E
:100E1000F50B661F771F881F991F1A9469F7609555
:100E20007095809590959B01AC01BD01CF0108950F
:100E3000EE0FFF1F0024001C0BBE0790F691E02D63
:100E40000994D9D008F481E008950CD00FC107D1DE
:100E500040F0FED030F021F45F3F19F0F0C05111A6
:100E600039C1F3C014D198F39923C9F35523B1F3D1
:100E7000951B550BBB27AA2762177307840738F009
:100E80009F5F5F4F220F331F441FAA1FA9F333D068
:100E90000E2E3AF0E0E830D091505040E695001C1C
:100EA000CAF729D0FE2F27D0660F771F881FBB1FD8
:100EB000261737074807AB07B0E809F0BB0B802DB2
:100EC000BF01FF2793585F4F2AF09E3F510568F0FE
:100ED000B6C000C15F3FECF3983EDCF38695779592
:100EE0006795B795F7959F5FC9F7880F911D969500
:100EF000879597F90895E1E0660F771F881FBB1F5C
:100F0000621773078407BA0720F0621B730B840B08
:100F1000BA0BEE1F88F7E095089504D06894B111DC
:100F2000D9C00895BCD088F09F5790F0B92F992769
:100F3000B751A0F0D1F0660F771F881F991F1AF0E4
:100F4000BA95C9F712C0B13081F0C3D0B1E00895AD
:100F5000C0C0672F782F8827B85F39F0B93FCCF32E
:100F6000869577956795B395D9F73EF490958095DA
:100F7000709561957F4F8F4F9F4F0895E89409C0FA
:100F800097FB3EF490958095709561957F4F8F4FBC
:100F90009F4F9923A9F0F92F96E9BB279395F695D2
:100FA000879577956795B795F111F8CFFAF4BB0F50
:100FB00011F460FF1BC06F5F7F4F8F4F9F4F16C0B4
:100FC000882311F096E911C0772321F09EE8872F3E
:100FD000762F05C0662371F096E8862F70E060E0FA
:100FE0002AF09A95660F771F881FDAF7880F969573
:100FF000879597F90895990F0008550FAA0BE0E817
:10100000FEEF16161706E807F907C0F012161306CA
:10101000E407F50798F0621B730B840B950B39F40A
:101020000A2661F0232B242B252B21F408950A2670
:1010300009F4A140A6958FEF811D811D089597F9B0
:101040009F6780E870E060E008959FEF80EC08956E
:1010500000240A9416161706180609060895002497
:101060000A9412161306140605060895092E039411
:10107000000C11F4882352F0BB0F40F4BF2B11F485
:1010800060FF04C06F5F7F4F8F4F9F4F089557FDE4
:101090009058440F551F59F05F3F71F04795880FE6
:1010A00097FB991F61F09F3F79F08795089512167D
:1010B00013061406551FF2CF4695F1DF08C0161629
:1010C00017061806991FF1CF8695710561050894DA
:1010D0000895E894BB2766277727CB0197F90895F1
:1010E0008ADF08F48FEF08950BD0C0CFB1DF28F06E
:1010F000B6DF18F0952309F0A2CFA7CF1124EACFCD
:10110000C6DFA0F3959FD1F3950F50E0551F629F66
:10111000F001729FBB27F00DB11D639FAA27F00D50
:10112000B11DAA1F649F6627B00DA11D661F829F77
:101130002227B00DA11D621F739FB00DA11D621F5C
:10114000839FA00D611D221F749F3327A00D611D79
:10115000231F849F600D211D822F762F6A2F11245B
:101160009F5750408AF0E1F088234AF0EE0FFF1FAE
:10117000BB1F661F771F881F91505040A9F79E3FE5
:10118000510570F05CCFA6CF5F3FECF3983EDCF3E7
:10119000869577956795B795F795E7959F5FC1F722
:1011A000FE2B880F911D9695879597F90895F999CB
:1011B000FECF92BD81BDF89A992780B50895262F5C
:1011C000F999FECF1FBA92BD81BD20BD0FB6F8942C
:0E11D000FA9AF99A0FBE01960895F894FFCF8F
:1011DE0004040408100402010101020402010404C3
:1011EE00081010080402010102040201011010048B
:1011FE0002041002041004020000030003000300A6
:10120E0003000300030003000300030003000300B8
:10121E00030003000300030019000C000C0019006A
:10122E0019003200320019000C000C0019001900D0
:10123E0032003200190019001900190019001900A6
:10124E0019001900190019001900190019001900C8
:10125E00190019001900190019001900320019009F
:10126E00190019001900320000000000ED01ED0117
:10127E00ED010B024B02ED01B801880188018801D6
:10128E00B801ED01B8018801ED01ED010B024B0231
:10129E004B020B02ED01B80188018801B801ED0186
:1012AE00B801880188014B024B02ED01B801ED0136
:1012BE004B02B801ED014B02ED01B8010000000038
:1012CE0001000000000A15110A040000041F11118C
:1012DE001F1F1F1F01030509090B1B180A0A1F11E7
:1012EE00110E040400000A0004110E00000A1F1F54
:1012FE000E040000040E0E0E1F0004000103071F53
:10130E001F0703015075736820427574746F6E5415
:10131E006F205374617274004D656D6F72697A65DA
:10132E00204E6F7465730052657065617420746829
:10133E0065204E6F74657300594F552057494E0006
:10134E00437573746F6D2063686172204C43440063
:10135E005075736820427574746F6E20546F202020
:0C136E0053746172742047616D650000CB
:00000001FF
