:100000000C945E000C947D000C947D000C947D009B
:100010000C947D000C947D000C947D000C947D006C
:100020000C947D000C947D000C947D000C947D005C
:100030000C947D000C946B010C947D000C947D005D
:100040000C947D000C947D000C947D000C947D003C
:100050000C947D000C947D000C947D000C947D002C
:100060000C947D000C947D000C947D000C947D001C
:100070000C947D000C947D000C947D000C947D000C
:100080000C947D000C947D000C947D00D402DF0262
:100090002C035A04AC048E0347052D046F05550448
:1000A0009805C205D405DF05F705EC0567060A06C5
:1000B0003507500643075E064C07880711241FBE0C
:1000C000CFEFD0E4DEBFCDBF13E0A0E0B1E0E4EFBE
:1000D000F6E100E00BBF02C007900D92A837B10710
:1000E000D9F713E0A8E7B3E001C01D92A939B10721
:1000F000E1F70E942E090C94780B0C94000088B94B
:100100005E985D985F9A82E08A95F1F700C05F98EB
:100110008FE99FE00197F1F700C00000089588B9CA
:100120005E9A5D985F9A82E08A95F1F700C05F98C9
:100130008FE99FE00197F1F700C0000008958FEF6D
:100140008AB987B98FE39CE90197F1F700C00000F5
:1001500088E30E947F008CE00E947F0086E00E947E
:100160007F0081E00E947F008FE99FE00197F1F717
:1001700000C0000080E80E947F0008950F931F9345
:10018000CF93DF938C01C0E0D0E003C00E948F00CA
:100190002196F801EC0FFD1F80818111F7CFDF91CF
:1001A000CF911F910F910895CF93DF93EA018111B1
:1001B00008C0603134F4862F8F7080680E947F0001
:1001C00009C0813039F460312CF4862F8F70806C37
:1001D0000E947F00CE010E94BE00DF91CF91089562
:1001E00081E00E947F0080E80E947F0008950F93C5
:1001F0001F93CF93883090F48B01880F880F880F5E
:10020000805C0E947F00C0E007C0F801EC0FF11D88
:1002100080810E948F00CF5FC830B8F3CF911F91CB
:100220000F910895813120F481580E947F00089534
:1002300081550E947F00089511B887E880937A0065
:1002400080E480937C0008958770806480937C00B4
:10025000EAE7F0E080818064808380917A0084FF07
:10026000FCCFEAE7F0E08081806180832091780014
:100270008091790090E0982F8827820F911D089532
:100280008BE0809381008DE790E0909389008093CC
:10029000880082E080936F001092850010928400A5
:1002A0008091C2029091C302A091C402B091C50294
:1002B00080937C0390937D03A0937E03B0937F0390
:1002C0008FB780688FBF089510928100089581E0F4
:1002D0008093800308951F920F920FB60F921124FE
:1002E0000BB60F922F933F934F935F936F937F9330
:1002F0008F939F93AF93BF93EF93FF9380917C0372
:1003000090917D03A0917E03B0917F030197A10995
:10031000B10980937C0390937D03A0937E03B093F7
:100320007F03892B8A2B8B2B91F40E94670180918C
:10033000C2029091C302A091C402B091C502809301
:100340007C0390937D03A0937E03B0937F03FF9182
:10035000EF91BF91AF919F918F917F916F915F913D
:100360004F913F912F910F900BBE0F900FBE0F90AA
:100370001F9018956093C2027093C3028093C402C9
:100380009093C50260937C0370937D0380937E03FA
:1003900090937F030895CF92DF92EF92FF926B01CB
:1003A0007C0120918103309182034091830350911D
:1003B00084030E94AC09882309F458C020E030E08F
:1003C000A901C701B6010E94AC09811106C0E1E98B
:1003D000F0E080818870808305C0E1E9F0E08081F1
:1003E0008360808328E539E344E75FE3C701B60112
:1003F0000E94AC0988233CF48FEF9FEF9093990003
:100400008093980027C020E034E244EF56E4C7010F
:10041000B6010E94FB0A18162CF410929900109253
:10042000980018C020E030E040E053E4C701B60176
:100430000E94FF0A9B01AC0160E074E284EF9AE441
:100440000E94B0090E94180A6150710970939900C6
:10045000609398001092950010929400C0928103CE
:10046000D0928203E0928303F0928403FF90EF9096
:10047000DF90CF90089580E4809390008BE080938C
:10048000910060E070E0CB010E94CB0108951092D2
:100490009000109291000895CF93DF93CDB7DEB70F
:1004A000E0970FB6F894DEBF0FBECDBF88E0E6EC54
:1004B000F2E0DE01119601900D928A95E1F788E055
:1004C000EEECF2E0DE01199601900D928A95E1F7CB
:1004D00088E0E6EDF2E0DE01519601900D928A95FA
:1004E000E1F788E0EEEDF2E0DE01599601900D9221
:1004F0008A95E1F788E0E6EEF2E0DE019196019060
:100500000D928A95E1F788E0EEEEF2E0DE01999631
:1005100001900D928A95E1F70E949F00BE016F5FE6
:100520007F4F80E00E94F700BE01675F7F4F81E050
:100530000E94F700BE01675F7F4F82E00E94F700D4
:10054000BE01675F7F4F83E00E94F700BE016F5ED0
:100550007F4F84E00E94F700BE01675E7F4F85E019
:100560000E94F700BE016F5D7F4F86E00E94F7009A
:10057000BE01675D7F4F87E00E94F700E0960FB6EF
:10058000F894DEBF0FBECDBFDF91CF91089580B14B
:10059000E0918C03F0918D03EC30F10508F0F8C286
:1005A000EA5BFF4F0C94A3091092920310929103FF
:1005B00081E090E090938D0380938C03E9C280E00A
:1005C0000E94240190938F0380938E0381E00E9408
:1005D000240190938F0380938E03181619066CF0F4
:1005E0000E94F00081E00E94120184E00E948F00CE
:1005F000109279031092780311C08536910574F03A
:100600000E94F00081E10E94120184E00E948F00AC
:1006100081E090E090937903809378031899B8C2B1
:100620008091780390917903019769F481E090E0DB
:10063000909392038093910383E090E090938D03D5
:1006400080938C03A5C282E090E090938D03809309
:100650008C030E94F0009CC280E00E9424019093D1
:100660008F0380938E03181619066CF00E94F00019
:1006700081E00E94120184E00E948F001092940396
:100680001092930311C08536910574F00E94F0001A
:1006900085E00E94120184E00E948F0081E090E0DA
:1006A000909394038093930381E00E94240190939C
:1006B0008F0380938E03181619066CF00E94F000C9
:1006C00081E00E94120184E00E948F001092940346
:1006D0001092930311C08536910574F00E94F000CA
:1006E00081E10E94120184E00E948F0082E090E08C
:1006F000909394038093930319994AC20E94F00047
:1007000086E093E00E94BE0084E00E948F0085E0B6
:1007100090E090938D0380938C033AC28091930371
:1007200090919403009789F58091900390E0E09177
:100730008A03F0E0EE0FFF1FE65DFE4F208131815E
:100740002817390738F085E090E090938D03809367
:100750008C031EC22817390708F01AC2809195032E
:100760008F5F809395038E3038F089E090E090930E
:100770008D0380938C030CC287E090E090938D03EF
:1007800080938C031092900303C28130910589F508
:100790008091900390E0E0918A03F0E0EE0FFF1F5C
:1007A000EA5BFE4F208131812817390738F085E058
:1007B00090E090938D0380938C03EAC1281739074A
:1007C00008F0E6C1809195038F5F80939503813196
:1007D00038F089E090E090938D0380938C03D8C12A
:1007E00087E090E090938D0380938C0310929003A8
:1007F000CFC1029709F0CCC18091900390E0E091C5
:100800008A03F0E0EE0FFF1FE859FE4F208131818F
:100810002817390738F085E090E090938D03809396
:100820008C03B6C12817390708F0B2C1809195032F
:100830008F5F809395038F3038F089E090E090933C
:100840008D0380938C03A4C187E090E090938D0387
:1008500080938C03109290039BC18091900390E051
:10086000E0919503F0E0EE0FFF1FEE50FE4F208168
:1008700031812817390738F087E090E090938D0395
:1008800080938C0385C12817390708F081C185E062
:1008900090E090938D0380938C0380918A038F5F07
:1008A00080938A031092900373C110928D0310926B
:1008B0008C036EC186E193E00E94BE0084E00E943A
:1008C0008F00189942C084E090E090938D0380934C
:1008D0008C030E94F0008AE293E00E94BE0082E056
:1008E0000E948F00809189038E3068F481E10E941C
:1008F000120181E30E948F0082E10E94120184E3D1
:100900000E948F0045C192EF980F9F3068F481E1FB
:100910000E94120182E30E948F0082E10E94120174
:1009200089E30E948F0034C18D518B3008F030C1B3
:1009300081E10E94120184E30E948F0082E10E9403
:10094000120180E30E948F0023C183E090E0909326
:100950008D0380938C031CC1809189038E3078F5C0
:100960002091900330E0E0918A03F0E0EE0FFF1F4A
:10097000E65EFD4F408151814217530738F024E075
:1009800030E030938D0320938C0319C04217530736
:10099000B0F4909195039F5F909395039E3038F04B
:1009A00028E030E030938D0320938C0308C026E0CC
:1009B00030E030938D0320938C031092900392EFDC
:1009C000980F9F3078F52091900330E0E0918A03F2
:1009D000F0E0EE0FFF1FEA5CFD4F408151814217AE
:1009E000530738F024E030E030938D0320938C03DC
:1009F00019C042175307B0F4909195039F5F9093ED
:100A000095039F3038F028E030E030938D03209339
:100A10008C0308C026E030E030938D0320938C03D4
:100A2000109290038D518B3008F0B2C080919003EA
:100A300090E0E0918A03F0E0EE0FFF1FEC5AFD4FCB
:100A4000208131812817390738F084E090E09093B5
:100A50008D0380938C039CC02817390708F098C039
:100A6000809195038F5F809395038B3038F088E0F9
:100A700090E090938D0380938C038AC086E090E091
:100A800090938D0380938C031092900381C080918A
:100A9000900390E0E0919503F0E0EE0FFF1FEE5021
:100AA000FE4F208131812817390738F086E090E029
:100AB00090938D0380938C036BC02817390708F03F
:100AC00067C084E090E090938D0380938C038091C5
:100AD0008A038F5F80938A031092900359C00E940B
:100AE000F00089E393E00E94BE0080EC0E947F004A
:100AF00083E00E948F00809189038E3020F481E38F
:100B00000E948F000EC092EF980F9F3020F482E376
:100B10000E948F0006C08D518B3018F483E30E9431
:100B20008F008AE090E090938D0380938C0330C017
:100B3000189B21C080918903883269F08AE090E097
:100B400090938D0380938C0381E090E090937B03DE
:100B500080937A031DC00E94F0008AE493E00E9413
:100B6000BE0087E00E948F008BE090E090938D03A1
:100B700080938C030DC083E090E090938D0380936D
:100B80008C0306C0009B04C010928D0310928C034E
:100B9000E0918C03F0918D03EC30F10508F0BDC1BC
:100BA000EE5AFF4F0C94A3090E94F00010928A03A2
:100BB000109290031092950310928903089542E5D4
:100BC00053E061E080E00E94D4004DE553E061E035
:100BD00081E00E94D400089510927B0310927A0362
:100BE00010928A031092900310929503089582E068
:100BF0000E94120180E00E948F0086E00E94120194
:100C000087E00E948F0082E10E94120186E00E942C
:100C10008F0008958091930390919403009791F42D
:100C2000E0918A03F0E0EE0FFF1FE257FE4F608174
:100C30007181882777FD8095982F0E944B0A0E942A
:100C4000CB0128C08130910591F4E0918A03F0E056
:100C5000EE0FFF1FE655FE4F60817181882777FDFB
:100C60008095982F0E944B0A0E94CB0113C00297D7
:100C700089F4E0918A03F0E0EE0FFF1FE453FE4F8A
:100C800060817181882777FD8095982F0E944B0A9B
:100C90000E94CB01809190038F5F80939003089511
:100CA00060E070E0CB010E94CB018BB180788BB902
:100CB000809190038F5F80939003089560E070E0CF
:100CC000CB010E94CB018BB180788BB908958091C4
:100CD00089038E30F0F5E0918A03F0E0EE0FFF1FFC
:100CE000E259FD4F60817181882777FD8095982FAB
:100CF0000E944B0A0E94CB01E0918A03F0E0EE0FC4
:100D0000FF1FE259FD4F808191818D3E21E09207C6
:100D1000C9F044F4883821E0920781F0883B914083
:100D200079F017C08B3422E0920781F0833922E0FA
:100D3000920771F08B30924061F406C0589A09C056
:100D4000599A07C05A9A05C05B9A03C05C9A01C0C1
:100D50005D9A809189038E508F30F0F5E0918A037F
:100D6000F0E0EE0FFF1FE657FD4F6081718188278D
:100D700077FD8095982F0E944B0A0E94CB01E0914D
:100D80008A03F0E0EE0FFF1FE657FD4F808191814F
:100D90008D3E21E09207C9F044F4883821E09207A3
:100DA00081F0883B914079F017C08B3422E09207A4
:100DB00081F0833922E0920771F08B30924061F428
:100DC00006C0589A09C0599A07C05A9A05C05B9A3A
:100DD00003C05C9A01C05D9A809189038D518B306C
:100DE000F0F5E0918A03F0E0EE0FFF1FE855FD4FAC
:100DF00060817181882777FD8095982F0E944B0A2A
:100E00000E94CB01E0918A03F0E0EE0FFF1FE8554E
:100E1000FD4F808191818D3E21E09207C9F044F41D
:100E2000883821E0920781F0883B914079F017C023
:100E30008B3422E0920781F0833922E0920771F02F
:100E40008B30924061F406C0589A09C0599A07C085
:100E50005A9A05C05B9A03C05C9A01C05D9A809162
:100E600090038F5F80939003089560E070E0CB0162
:100E70000E94CB018BB180788BB9809190038F5FFA
:100E800080939003089560E070E0CB010E94CB0155
:100E90008BB180788BB90895009B07C060E070E04B
:100EA00084EC93E40E94CB010895019B07C060E0AD
:100EB00070E08CED93E40E94CB010895029B07C083
:100EC00060E070E886EF93E40E94CB010895039BF5
:100ED00007C060E070EC82E094E40E94CB010895CA
:100EE000049B07C060E070EC82E194E40E94CB01B7
:100EF0000895059B07C060E070EC84E294E40E94D2
:100F0000CB01089560E070E0CB010E94CB01089511
:100F100060E070E0CB010E94CB0108958F929F9218
:100F2000AF92BF92CF92DF92EF92FF92CF93C0B178
:100F30008091960390919703009719F0019741F0E3
:100F4000DDC081E090E09093970380939603D6C034
:100F500082E090E00E94620B90E0A0E0B0E080931D
:100F6000850390938603A0938703B0938803CC23D3
:100F700069F121E030E030939703209396032091AC
:100F80007A0330917B032130310501F520918903EB
:100F9000E22FF0E0E050FF4F30813C1304C02F5FA0
:100FA0002093890313C02E3018F4109289030EC0C9
:100FB00032EF320F3F3020F42EE02093890306C039
:100FC0002D512B3018F42DE12093890320918903B2
:100FD0004FEF50E0421B5109662757FD6095762F71
:100FE000481759076A077B0790F4BC01CD0161508F
:100FF0007109810991096093850370938603809339
:1010000087039093880382E090E00E946A0B8091AE
:10101000910390919203019709F070C08BE10E94B7
:10102000120183E50E948F008CE10E9412018091E1
:101030008903CDEC8C9F812D11248695869586950C
:10104000805D0E948F008DE10E94120180918903D2
:101050008C9FC12D1124C695C695C695CC0F9C2F8B
:10106000990F990FC90F8C1B805D0E948F008EE134
:101070000E94120188E40E948F008FE10E941201F9
:10108000C12CD12C7601CA9480918503909186035E
:10109000A0918703B0918803A7019601281B390B03
:1010A0004A0B5B0BCA01B9010F2EFAE08F2E912C6F
:1010B000A12CB12CF02DA50194010E94810980E39F
:1010C000820F0E948F0080E20E94120180918503AE
:1010D00090918603A0918703B0918803A7019601A0
:1010E000281B390B4A0B5B0BCA01B901A5019401FE
:1010F0000E94810980E3860F0E948F00CF91FF90AC
:10110000EF90DF90CF90BF90AF909F908F90089519
:101110001F93CF93DF93CDB7DEB7C054D1090FB67D
:10112000F894DEBF0FBECDBF88E0E6ECF2E0DE0152
:10113000119601900D928A95E1F788E0EEECF2E0CD
:10114000DE01199601900D928A95E1F788E0E6EFAD
:10115000F2E0DE01519601900D928A95E1F788E068
:10116000EEEFF2E0DE01599601900D928A95E1F7DB
:1011700088E0E6EDF2E0DE01919601900D928A950D
:10118000E1F788E0EEEDF2E0DE01999601900D9234
:101190008A95E1F788E0E6EEF2E0DE01D196019073
:1011A0000D928A95E1F788E0EEEEF2E0DE01D99645
:1011B00001900D928A95E1F70E949F00BE016F5F3A
:1011C0007F4F80E00E94F700BE01675F7F4F81E0A4
:1011D0000E94F700BE016F5E7F4F82E00E94F70021
:1011E000BE01675E7F4F83E00E94F700BE016F5D26
:1011F0007F4F84E00E94F700BE01675D7F4F85E06E
:101200000E94F700BE016F5C7F4F86E00E94F700EE
:10121000BE01675C7F4F87E00E94F70080E80E9474
:101220007F0087E693E00E94BE0080EC0E947F0072
:1012300010E007C0812F0E948F0080E20E948F0083
:101240001F5F1830BCF3C05CDF4F0FB6F894DEBFF1
:101250000FBECDBFDF91CF911F9108950E941C0159
:1012600011B812B88CEF84B983E085B98FEF87B9D4
:1012700018B88AB91BB810928D0310928C03109283
:101280009703109296030E949F000E9488080E9474
:10129000F0006AE070E080E090E00E94BA010E94F5
:1012A00040010E943B02812C912C5401C12CD12C75
:1012B00076018AE0C816D104E104F10428F00E9406
:1012C000C702C12CD12C76018CE2881681E09806E9
:1012D000A104B10428F00E948E07812C912C5401A6
:1012E000809180038823E1F3109280038AE0C80E86
:1012F000D11CE11CF11C8AE0880E911CA11CB11CC0
:10130000D8CFA1E21A2EAA1BBB1BFD010DC0AA1F3C
:10131000BB1FEE1FFF1FA217B307E407F50720F05E
:10132000A21BB30BE40BF50B661F771F881F991FD9
:101330001A9469F760957095809590959B01AC0122
:10134000BD01CF010895EE0FFF1F0024001C0BBE4E
:101350000790F691E02D0994D9D008F481E0089522
:101360000CD00FC107D140F0FED030F021F45F3F28
:1013700019F0F0C0511139C1F3C014D198F3992379
:10138000C9F35523B1F3951B550BBB27AA27621749
:101390007307840738F09F5F5F4F220F331F441F8E
:1013A000AA1FA9F333D00E2E3AF0E0E830D09150C6
:1013B0005040E695001CCAF729D0FE2F27D0660FB3
:1013C000771F881FBB1F261737074807AB07B0E8F2
:1013D00009F0BB0B802DBF01FF2793585F4F2AF008
:1013E0009E3F510568F0B6C000C15F3FECF3983EE8
:1013F000DCF3869577956795B795F7959F5FC9F765
:10140000880F911D9695879597F90895E1E0660FED
:10141000771F881FBB1F621773078407BA0720F066
:10142000621B730B840BBA0BEE1F88F7E0950895CF
:1014300004D06894B111D9C00895BCD088F09F57EA
:1014400090F0B92F9927B751A0F0D1F0660F771F10
:10145000881F991F1AF0BA95C9F712C0B13081F0F0
:10146000C3D0B1E00895C0C0672F782F8827B85F38
:1014700039F0B93FCCF3869577956795B395D9F751
:101480003EF490958095709561957F4F8F4F9F4F5B
:101490000895E89409C097FB3EF490958095709567
:1014A00061957F4F8F4F9F4F9923A9F0F92F96E9B0
:1014B000BB279395F695879577956795B795F11125
:1014C000F8CFFAF4BB0F11F460FF1BC06F5F7F4FC2
:1014D0008F4F9F4F16C0882311F096E911C07723D4
:1014E00021F09EE8872F762F05C0662371F096E8DD
:1014F000862F70E060E02AF09A95660F771F881FAC
:10150000DAF7880F9695879597F90895990F00084F
:10151000550FAA0BE0E8FEEF16161706E807F907C5
:10152000C0F012161306E407F50798F0621B730B60
:10153000840B950B39F40A2661F0232B242B252BE1
:1015400021F408950A2609F4A140A6958FEF811D84
:10155000811D089597F99F6780E870E060E0089525
:101560009FEF80EC089500240A94161617061806BB
:101570000906089500240A94121613061406050697
:101580000895092E0394000C11F4882352F0BB0F28
:1015900040F4BF2B11F460FF04C06F5F7F4F8F4F8B
:1015A0009F4F089557FD9058440F551F59F05F3FC6
:1015B00071F04795880F97FB991F61F09F3F79F075
:1015C00087950895121613061406551FF2CF4695F7
:1015D000F1DF08C0161617061806991FF1CF869579
:1015E0007105610508940895E894BB27662777275D
:1015F000CB0197F908958ADF08F48FEF08950BD097
:10160000C0CFB1DF28F0B6DF18F0952309F0A2CFE4
:10161000A7CF1124EACFC6DFA0F3959FD1F3950F92
:1016200050E0551F629FF001729FBB27F00DB11D66
:10163000639FAA27F00DB11DAA1F649F6627B00DF6
:10164000A11D661F829F2227B00DA11D621F739FDF
:10165000B00DA11D621F839FA00D611D221F749FED
:101660003327A00D611D231F849F600D211D822F34
:10167000762F6A2F11249F5750408AF0E1F088237B
:101680004AF0EE0FFF1FBB1F661F771F881F915088
:101690005040A9F79E3F510570F05CCFA6CF5F3F49
:1016A000ECF3983EDCF3869577956795B795F795BB
:1016B000E7959F5FC1F7FE2B880F911D9695879543
:1016C00097F90895F999FECF92BD81BDF89A9927AF
:1016D00080B50895262FF999FECF1FBA92BD81BD1E
:1016E00020BD0FB6F894FA9AF99A0FBE01960895A4
:0416F000F894FFCF9C
:1016F40004040408100402010101020402010404A8
:10170400081010080402010102040201011010046F
:101714000204100204100402000019001900190048
:1017240019001900190032001900190019001900D4
:1017340019001900320019001900190019001900C4
:10174400190019000C000C001900190019001900E7
:101754000C000C00190019001900190019001900D7
:1017640019001900190019001900190019001900AD
:101774001900190019000000000000000000880191
:1017840088014B024B02930293024B020B020B02A1
:10179400ED01ED01B801B8018801B8014B024B021B
:1017A400BA021003BA0293024B029302BA02BA02BB
:1017B400BA02BA029302BA0293024B02ED01ED019E
:1017C4000B024B024B020B02ED01B80188018801A8
:1017D400B801ED01B8018801880100000000000093
:1017E40000000300030003000300030003000300E0
:1017F40003000300030003000300030003000300CD
:101804000300030003000300030019000C000C0094
:10181400190019003200320019000C000C001900E4
:1018240019003200320019001900190019001900BA
:1018340019001900190019001900190019001900DC
:1018440019001900190019001900190019003200B3
:101854001900190019001900320000000000ED0100
:10186400ED01ED010B024B02ED01B8018801880185
:101874008801B801ED01B8018801ED01ED010B0209
:101884004B024B020B02ED01B80188018801B8013B
:10189400ED01B801880188014B024B02ED01B8014A
:1018A400ED014B02B801ED014B02ED01B80100005E
:1018B400000001000000000A15110A040000041FC2
:1018C40011111F1F1F1F01030509090B1B180A0A09
:1018D4001F11110E040400000A0004110E00000A76
:1018E4001F1F0E040000040E0E0E1F00040001034F
:1018F400071F1F070301456E6A6F7920746865200E
:101904004D75736963005075736820427574746F04
:101914006E546F205374617274004D656D6F7269FB
:101924007A65204E6F74657300526570656174202A
:10193400746865204E6F74657300594F552057497C
:101944004E00415544494F20504C41590047414DA8
:1019540045204D4F444500437573746F6D20636893
:081964006172204C43440000B5
:00000001FF
