:100000000C9446000C9465000C9465000C946500FB
:100010000C9465000C9465000C9465000C946500CC
:100020000C9465000C9465000C9465000C946500BC
:100030000C9465000C94FF000C9465000C94650012
:100040000C9465000C9465000C9465000C9465009C
:100050000C9465000C9465000C9465000C9465008C
:100060000C9465000C9465000C9465000C9465007C
:100070000C9465000C9465000C9465000C9465006C
:100080000C9465000C9465000C94650011241FBE4F
:10009000CFEFD0E4DEBFCDBF11E0A0E0B1E0E2E3FE
:1000A000FAE000E00BBF02C007900D92A83AB1073A
:1000B000D9F711E0A8EAB1E001C01D92A73BB10752
:1000C000E1F70E9439030C9417050C94000040E0FE
:1000D00050E00CC000002F5F3F4F02C020E030E036
:1000E000273063E03607B4F34F5F5F4F4817590777
:1000F000ACF308955E9888B95F9A00005F9882E03B
:1001000090E00E946700089581E00E947A000895BF
:10011000813120F481580E947A00089581550E940F
:100120007A00089584E690E00E94670088E30E94C8
:100130007A0086E00E947A008FE00E947A0081E0D7
:100140000E947A008AE090E00E94670008955E9A1B
:1001500088B95F9A00005F9881E090E00E94670094
:100160000895EF92FF920F931F93CF93DF93182F71
:10017000EB010E9484000EC001E0010F812F0E945C
:1001800088007E018FEFE81AF80A88810E94A70094
:10019000102FE70188818111EFCFDF91CF911F915F
:1001A0000F91FF90EF9008958BE0809381008DE791
:1001B00090E0909389008093880082E080936F00A4
:1001C0001092850010928400809154019091550105
:1001D000A0915601B09157018093A8019093A90175
:1001E000A093AA01B093AB018FB780688FBF089529
:1001F00010928100089581E08093AC0108951F92D0
:100200000F920FB60F9211240BB60F922F933F93BC
:100210004F935F936F937F938F939F93AF93BF930E
:10022000EF93FF938091A8019091A901A091AA0159
:10023000B091AB010197A109B1098093A8019093F6
:10024000A901A093AA01B093AB01892B8A2B8B2B18
:1002500091F40E94FB008091540190915501A0916E
:100260005601B09157018093A8019093A901A093E2
:10027000AA01B093AB01FF91EF91BF91AF919F9114
:100280008F917F916F915F914F913F912F910F903F
:100290000BBE0F900FBE0F901F90189560935401E6
:1002A0007093550180935601909357016093A80174
:1002B0007093A9018093AA019093AB010895CF9206
:1002C000DF92EF92FF926B017C012091AD013091A2
:1002D000AE014091AF015091B0010E9461038823AB
:1002E00009F458C020E030E0A901C701B6010E941E
:1002F0006103811106C0E1E9F0E0808188708083AC
:1003000005C0E1E9F0E080818360808328E539E37E
:1003100044E75FE3C701B6010E94610388233CF410
:100320008FEF9FEF909399008093980027C020E073
:1003300034E244EF56E4C701B6010E94B004181637
:100340002CF4109299001092980018C020E030E030
:1003500040E053E4C701B6010E94B4049B01AC0124
:1003600060E074E284EF9AE40E9465030E94CD038A
:1003700061507109709399006093980010929500F4
:1003800010929400C092AD01D092AE01E092AF0104
:10039000F092B001FF90EF90DF90CF90089580E44D
:1003A000809390008BE08093910060E070E0CB013F
:1003B0000E945F010895109290001092910008959C
:1003C0008091B3019091B4018230910561F128F4DC
:1003D000009769F0019791F099C08430910509F474
:1003E0007AC008F451C0059709F481C08FC081E03C
:1003F00090E09093B4018093B30188C000990CC041
:1004000082E090E09093B4018093B30168E571E0DD
:1004100081E00E94B1007AC081E090E09093B40145
:100420008093B30173C08091B50190E0E091B10178
:10043000F0E0EE0FFF1FE45EFE4F208131812817B0
:10044000390738F082E090E09093B4018093B301D3
:100450005DC02817390708F059C08091B6018F5F39
:100460008093B6018E3038F084E090E09093B40130
:100470008093B3014BC083E090E09093B4018093EC
:10048000B3011092B50142C08091B50190E0E091B6
:10049000B601F0E0EE0FFF1FE050FF4F20813181E9
:1004A0002817390738F083E090E09093B4018093E7
:1004B000B3012CC02817390748F582E090E09093EB
:1004C000B4018093B3018091B1018F5F8093B1013A
:1004D0001092B5011BC062E771E081E00E94B1009B
:1004E00085E090E09093B4018093B3010FC0009B2E
:1004F00007C085E090E09093B4018093B30106C0FB
:1005000081E090E09093B4018093B3018091B301B6
:100510009091B4018330910509F45AC030F48130D0
:10052000910559F0029781F008958430910509F4FE
:100530005CC0059709F461C008951092B101109252
:10054000B5011092B6010895E091B101F0E0EE0F0F
:10055000FF1FE85CFE4F60817181882777FD8095E1
:10056000982F0E9400040E945F01E091B101F0E029
:10057000EE0FFF1FE85CFE4F808191818D3E21E0F0
:100580009207C9F044F4883821E0920781F0883B53
:10059000914079F017C08B3422E0920781F08339C3
:1005A00022E0920771F08B30924061F406C0119AFC
:1005B00009C0129A07C0139A05C0149A03C0159A6D
:1005C00001C0169A8091B5018F5F8093B50108959F
:1005D00060E070E0CB010E945F0181E082B9809110
:1005E000B5018F5F8093B501089560E070E0CB01A5
:1005F0000E945F0181E082B90895019B07C060E01D
:1006000070E084EC93E40E945F010895029B07C0B0
:1006100060E070E08CED93E40E945F010895039B1D
:1006200007C060E070E886EF93E40E945F010895E0
:10063000049B07C060E070EC82E094E40E945F01DC
:100640000895059B07C060E070EC82E194E40E948D
:100650005F010895069B07C060E070EC84E294E4BB
:100660000E945F01089560E070E0CB010E945F018D
:10067000089511B881E082B98FEF84B915B887B9B0
:1006800018B88AB91BB81092B4011092B3010E9435
:1006900092006CE871E081E00E94B1006AE070E0D5
:1006A00080E090E00E944E010E94D4000E94CF01A1
:1006B0000E94E0018091AC018823E1F31092AC012B
:1006C000F7CFD9D008F481E008950CD00FC107D13D
:1006D00040F0FED030F021F45F3F19F0F0C051112E
:1006E00039C1F3C014D198F39923C9F35523B1F359
:1006F000951B550BBB27AA2762177307840738F091
:100700009F5F5F4F220F331F441FAA1FA9F333D0EF
:100710000E2E3AF0E0E830D091505040E695001CA3
:10072000CAF729D0FE2F27D0660F771F881FBB1F5F
:10073000261737074807AB07B0E809F0BB0B802D39
:10074000BF01FF2793585F4F2AF09E3F510568F085
:10075000B6C000C15F3FECF3983EDCF38695779519
:100760006795B795F7959F5FC9F7880F911D969587
:10077000879597F90895E1E0660F771F881FBB1FE3
:10078000621773078407BA0720F0621B730B840B90
:10079000BA0BEE1F88F7E095089504D06894B11164
:1007A000D9C00895BCD088F09F5790F0B92F9927F1
:1007B000B751A0F0D1F0660F771F881F991F1AF06C
:1007C000BA95C9F712C0B13081F0C3D0B1E0089535
:1007D000C0C0672F782F8827B85F39F0B93FCCF3B6
:1007E000869577956795B395D9F73EF49095809562
:1007F000709561957F4F8F4F9F4F0895E89409C082
:1008000097FB3EF490958095709561957F4F8F4F43
:100810009F4F9923A9F0F92F96E9BB279395F69559
:10082000879577956795B795F111F8CFFAF4BB0FD7
:1008300011F460FF1BC06F5F7F4F8F4F9F4F16C03B
:10084000882311F096E911C0772321F09EE8872FC5
:10085000762F05C0662371F096E8862F70E060E081
:100860002AF09A95660F771F881FDAF7880F9695FA
:10087000879597F90895990F0008550FAA0BE0E89E
:10088000FEEF16161706E807F907C0F01216130652
:10089000E407F50798F0621B730B840B950B39F492
:1008A0000A2661F0232B242B252B21F408950A26F8
:1008B00009F4A140A6958FEF811D811D089597F938
:1008C0009F6780E870E060E008959FEF80EC0895F6
:1008D00000240A941616170618060906089500241F
:1008E0000A9412161306140605060895092E039499
:1008F000000C11F4882352F0BB0F40F4BF2B11F40D
:1009000060FF04C06F5F7F4F8F4F9F4F089557FD6B
:100910009058440F551F59F05F3F71F04795880F6D
:1009200097FB991F61F09F3F79F087950895121604
:1009300013061406551FF2CF4695F1DF08C01616B0
:1009400017061806991FF1CF869571056105089461
:100950000895E894BB2766277727CB0197F9089578
:100960008ADF08F48FEF08950BD0C0CFB1DF28F0F5
:10097000B6DF18F0952309F0A2CFA7CF1124EACF54
:10098000C6DFA0F3959FD1F3950F50E0551F629FEE
:10099000F001729FBB27F00DB11D639FAA27F00DD8
:1009A000B11DAA1F649F6627B00DA11D661F829FFF
:1009B0002227B00DA11D621F739FB00DA11D621FE4
:1009C000839FA00D611D221F749F3327A00D611D01
:1009D000231F849F600D211D822F762F6A2F1124E3
:1009E0009F5750408AF0E1F088234AF0EE0FFF1F36
:1009F000BB1F661F771F881F91505040A9F79E3F6D
:100A0000510570F05CCFA6CF5F3FECF3983EDCF36E
:100A1000869577956795B795F795E7959F5FC1F7A9
:100A2000FE2B880F911D9695879597F90895F89458
:020A3000FFCFF6
:100A3200030003000300030003000300030003009C
:100A42000300030003000300030003001900190060
:100A520019001900190019003200190019001900B3
:100A62001900190019003200880188014B024B025B
:100A7200930293024B020B020B02ED01ED01B8014E
:100A8200B80188010100000054727920546F204D92
:100A9200656D6F72697A6520746865204E6F746542
:100AA200730054727920546F20526570656174200E
:100AB2002020746865204E6F7465730050757368EA
:100AC20020427574746F6E20546F202053746172CB
:080AD200742047616D6500000E
:00000001FF
