:100000000C945E000C947D000C947D000C947D009B
:100010000C947D000C947D000C947D000C947D006C
:100020000C947D000C947D000C947D000C947D005C
:100030000C947D000C946B010C947D000C947D005D
:100040000C947D000C947D000C947D000C947D003C
:100050000C947D000C947D000C947D000C947D002C
:100060000C947D000C947D000C947D000C947D001C
:100070000C947D000C947D000C947D000C947D000C
:100080000C947D000C947D000C947D00D402DF0262
:100090002C035A047A048E0315052D043D055504DE
:1000A00066059005A205AD05C505BA05C006D805CB
:1000B0008E07A9069C07B706A507E10711241FBEF6
:1000C000CFEFD0E4DEBFCDBF13E0A0E0B1E0EAE9BE
:1000D000F7E100E00BBF02C007900D92AE36B1070A
:1000E000D9F713E0AEE6B3E001C01D92AF38B10717
:1000F000E1F70E9481090C94CB0B0C94000088B9A5
:100100005E985D985F9A82E08A95F1F700C05F98EB
:100110008FE99FE00197F1F700C00000089588B9CA
:100120005E9A5D985F9A82E08A95F1F700C05F98C9
:100130008FE99FE00197F1F700C0000008958FEF6D
:100140008AB987B98FE39CE90197F1F700C00000F5
:1001500088E30E947F008CE00E947F0086E00E947E
:100160007F0081E00E947F008FE99FE00197F1F717
:1001700000C0000080E80E947F0008950F931F9345
:10018000CF93DF938C01C0E0D0E003C00E948F00CA
:100190002196F801EC0FFD1F80818111F7CFDF91CF
:1001A000CF911F910F910895CF93DF93EA018111B1
:1001B00008C0603134F4862F8F7080680E947F0001
:1001C00009C0813039F460312CF4862F8F70806C37
:1001D0000E947F00CE010E94BE00DF91CF91089562
:1001E00081E00E947F0080E80E947F0008950F93C5
:1001F0001F93CF93883090F48B01880F880F880F5E
:10020000805C0E947F00C0E007C0F801EC0FF11D88
:1002100080810E948F00CF5FC830B8F3CF911F91CB
:100220000F910895813120F481580E947F00089534
:1002300081550E947F00089511B887E880937A0065
:1002400080E480937C0008958770806480937C00B4
:10025000EAE7F0E080818064808380917A0084FF07
:10026000FCCFEAE7F0E08081806180832091780014
:100270008091790090E0982F8827820F911D089532
:100280008BE0809381008DE790E0909389008093CC
:10029000880082E080936F001092850010928400A5
:1002A0008091B8029091B902A091BA02B091BB02BC
:1002B0008093720390937303A0937403B0937503B8
:1002C0008FB780688FBF089510928100089581E0F4
:1002D0008093760308951F920F920FB60F92112408
:1002E0000BB60F922F933F934F935F936F937F9330
:1002F0008F939F93AF93BF93EF93FF93809172037C
:1003000090917303A0917403B09175030197A109B3
:10031000B1098093720390937303A0937403B09315
:100320007503892B8A2B8B2B91F40E946701809196
:10033000B8029091B902A091BA02B091BB02809329
:10034000720390937303A0937403B0937503FF91AA
:10035000EF91BF91AF919F918F917F916F915F913D
:100360004F913F912F910F900BBE0F900FBE0F90AA
:100370001F9018956093B8027093B9028093BA02E7
:100380009093BB0260937203709373038093740322
:10039000909375030895CF92DF92EF92FF926B01D5
:1003A0007C0120917703309178034091790350913B
:1003B0007A030E94FF09882309F458C020E030E046
:1003C000A901C701B6010E94FF09811106C0E1E938
:1003D000F0E080818870808305C0E1E9F0E08081F1
:1003E0008360808328E539E344E75FE3C701B60112
:1003F0000E94FF0988233CF48FEF9FEF90939900B0
:100400008093980027C020E034E244EF56E4C7010F
:10041000B6010E944E0B18162CF4109299001092FF
:10042000980018C020E030E040E053E4C701B60176
:100430000E94520B9B01AC0160E074E284EF9AE4ED
:100440000E94030A0E946B0A61507109709399001F
:10045000609398001092950010929400C0927703D8
:10046000D0927803E0927903F0927A03FF90EF90B4
:10047000DF90CF90089580E4809390008BE080938C
:10048000910060E070E0CB010E94CB0108951092D2
:100490009000109291000895CF93DF93CDB7DEB70F
:1004A000E0970FB6F894DEBF0FBECDBF88E0ECEB4F
:1004B000F2E0DE01119601900D928A95E1F788E055
:1004C000E4ECF2E0DE01199601900D928A95E1F7D5
:1004D00088E0ECECF2E0DE01519601900D928A95F5
:1004E000E1F788E0E4EDF2E0DE01599601900D922B
:1004F0008A95E1F788E0ECEDF2E0DE01919601905B
:100500000D928A95E1F788E0E4EEF2E0DE0199963B
:1005100001900D928A95E1F70E949F00BE016F5FE6
:100520007F4F80E00E94F700BE01675F7F4F81E050
:100530000E94F700BE01675F7F4F82E00E94F700D4
:10054000BE01675F7F4F83E00E94F700BE016F5ED0
:100550007F4F84E00E94F700BE01675E7F4F85E019
:100560000E94F700BE016F5D7F4F86E00E94F7009A
:10057000BE01675D7F4F87E00E94F700E0960FB6EF
:10058000F894DEBF0FBECDBFDF91CF91089580B14B
:10059000E0918203F0918303EC30F10508F0C6C2CC
:1005A000EA5BFF4F0C94F6091092880310928703C0
:1005B00081E090E09093830380938203B7C280E050
:1005C0000E942401909385038093840381E00E941C
:1005D00024019093850380938403181619066CF008
:1005E0000E94F00081E00E94120184E00E948F00CE
:1005F00010926F0310926E0311C08536910574F04E
:100600000E94F00081E10E94120184E00E948F00AC
:1006100081E090E090936F0380936E03189986C2F7
:1006200080916E0390916F03019769F481E090E0EF
:10063000909388038093870383E090E090938303F3
:100640008093820373C282E090E09093830380934F
:1006500082030E94F0006AC280E00E94240190930D
:10066000850380938403181619066CF00E94F0002D
:1006700081E00E94120184E00E948F0010928A03A0
:100680001092890311C08536910574F00E94F00024
:1006900085E00E94120184E00E948F0081E090E0DA
:1006A00090938A038093890381E00E9424019093B0
:1006B000850380938403181619066CF00E94F000DD
:1006C00081E00E94120184E00E948F0010928A0350
:1006D0001092890311C08536910574F00E94F000D4
:1006E00081E10E94120184E00E948F0082E090E08C
:1006F00090938A0380938903199918C20E94F0008D
:100700008CEF92E00E94BE0084E00E948F0085E0A2
:1007100090E0909383038093820308C280918903C1
:1007200090918A03009789F58091860390E0E0918B
:100730008003F0E0EE0FFF1FE65DFE4F2081318168
:100740002817390738F085E090E090938303809371
:100750008203ECC12817390708F0E8C180918B03A8
:100760008F5F80938B038E3038F089E090E0909318
:10077000830380938203DAC187E090E09093830340
:100780008093820310928603D1C18130910589F54F
:100790008091860390E0E0918003F0E0EE0FFF1F70
:1007A000EA5BFE4F208131812817390738F085E058
:1007B00090E09093830380938203B8C12817390790
:1007C00008F0B4C180918B038F5F80938B038E30D0
:1007D00038F089E090E09093830380938203A6C170
:1007E00087E090E0909383038093820310928603C6
:1007F0009DC1029709F09AC18091860390E0E09133
:100800008003F0E0EE0FFF1FEE59FE4F2081318193
:100810002817390738F085E090E0909383038093A0
:10082000820384C12817390708F080C180918B03A7
:100830008F5F80938B038F3038F089E090E0909346
:1008400083038093820372C187E090E090938303D7
:10085000809382031092860369C18091860390E0A1
:10086000E0918B03F0E0EE0FFF1FEE50FE4F208172
:1008700031812817390738F087E090E0909383039F
:100880008093820353C12817390708F04FC185E0D0
:1008900090E09093830380938203809180038F5F25
:1008A000809380031092860341C1109283031092BB
:1008B00082033CC18CE093E00E94BE0084E00E9471
:1008C0008F00189910C084E090E090938303809388
:1008D00082030E94F00080E293E00E94BE0082E06A
:1008E0000E948F0023C183E090E090938303809364
:1008F00082031CC180917F038E3078F5209186039E
:1009000030E0E0918003F0E0EE0FFF1FE05FFD4F6D
:10091000408151814217530738F024E030E0309392
:1009200083032093820319C042175307B0F49091B8
:100930008B039F5F90938B039E3038F028E030E06C
:10094000309383032093820308C026E030E0309385
:100950008303209382031092860392EF980F9F30B7
:1009600078F52091860330E0E0918003F0E0EE0F0F
:10097000FF1FE45DFD4F408151814217530738F05E
:1009800024E030E0309383032093820319C04217A0
:100990005307B0F490918B039F5F90938B039F302C
:1009A00038F028E030E0309383032093820308C0BE
:1009B00026E030E030938303209382031092860375
:1009C0008D518B3008F0B2C08091860390E0E091A9
:1009D0008003F0E0EE0FFF1FE65BFD4F20813181C9
:1009E0002817390738F084E090E0909383038093D0
:1009F00082039CC02817390708F098C080918B03A8
:100A00008F5F80938B038B3038F088E090E0909379
:100A10008303809382038AC086E090E090938303EF
:100A2000809382031092860381C08091860390E0B8
:100A3000E0918B03F0E0EE0FFF1FEE50FE4F2081A0
:100A400031812817390738F086E090E090938303CE
:100A5000809382036BC02817390708F067C084E0D1
:100A600090E09093830380938203809180038F5F53
:100A7000809380031092860359C00E94F0008FE299
:100A800093E00E94BE0080EC0E947F0083E00E9401
:100A90008F0080917F038E3020F481E30E948F00CD
:100AA0000EC092EF980F9F3020F482E30E948F00D7
:100AB00006C08D518B3018F483E30E948F008AE0CA
:100AC00090E0909383038093820330C0189B21C0F1
:100AD00080917F03883269F08AE090E090938303ED
:100AE0008093820381E090E0909371038093700380
:100AF0001DC00E94F00080E493E00E94BE0087E0E9
:100B00000E948F008BE090E0909383038093820398
:100B10000DC083E090E0909383038093820306C02E
:100B2000009B04C01092830310928203E091820321
:100B3000F0918303EC30F10508F048C2EE5AFF4F04
:100B40000C94F6090E94F000109280031092860324
:100B500010928B0310927F03089548E453E061E004
:100B600080E00E94D40043E553E061E081E00E9410
:100B7000D4000895109271031092700310928003B4
:100B80001092860310928B03089582E00E94120156
:100B900080E00E948F0086E00E94120187E00E94A0
:100BA0008F0082E10E94120186E00E948F0008956A
:100BB0008091890390918A03009709F040C0E091E9
:100BC0008003F0E0EE0FFF1FE257FE4F608171815E
:100BD000882777FD8095982F0E949E0A0E94CB015E
:100BE000E0918003F0E0EE0FFF1FE257FE4F80819F
:100BF00091818D3E21E09207D1F044F4883821E0C4
:100C0000920789F0883B914081F09DC08B3422E0AF
:100C1000920789F0833922E0920779F08B30924075
:100C200009F091C006C0589A8EC0599A8CC05A9A41
:100C30008AC05B9A88C05C9A86C05D9A84C0813005
:100C4000910509F040C0E0918003F0E0EE0FFF1F36
:100C5000E655FE4F60817181882777FD8095982F3A
:100C60000E949E0A0E94CB01E0918003F0E0EE0F0B
:100C7000FF1FE655FE4F808191818D3E21E0920756
:100C8000D1F044F4883821E0920789F0883B914004
:100C900081F059C08B3422E0920789F0833922E039
:100CA000920779F08B30924009F04DC006C0589AF7
:100CB0004AC0599A48C05A9A46C05B9A44C05C9A46
:100CC00042C05D9A40C00297F1F5E0918003F0E0E8
:100CD000EE0FFF1FEA53FE4F60817181882777FD79
:100CE0008095982F0E949E0A0E94CB01E09180037C
:100CF000F0E0EE0FFF1FEA53FE4F808191818D3EA1
:100D000021E09207C9F044F4883821E0920781F08D
:100D1000883B914079F017C08B3422E0920781F034
:100D2000833922E0920771F08B30924061F406C063
:100D3000589A09C0599A07C05A9A05C05B9A03C0CD
:100D40005C9A01C05D9A809186038F5F80938603D1
:100D5000089560E070E0CB010E94CB018BB18078F8
:100D60008BB9809186038F5F80938603089560E03E
:100D700070E0CB010E94CB018BB180788BB90895D4
:100D800080917F038E30F0F5E0918003F0E0EE0F6C
:100D9000FF1FEC59FD4F60817181882777FD809599
:100DA000982F0E949E0A0E94CB01E0918003F0E000
:100DB000EE0FFF1FEC59FD4F808191818D3E21E0A8
:100DC0009207C9F044F4883821E0920781F0883B0B
:100DD000914079F017C08B3422E0920781F083397B
:100DE00022E0920771F08B30924061F406C0589A6D
:100DF00009C0599A07C05A9A05C05B9A03C05C9A09
:100E000001C05D9A80917F038E508F30F0F5E091A4
:100E10008003F0E0EE0FFF1FE058FD4F608171810D
:100E2000882777FD8095982F0E949E0A0E94CB010B
:100E3000E0918003F0E0EE0FFF1FE058FD4F80814E
:100E400091818D3E21E09207C9F044F4883821E079
:100E5000920781F0883B914079F017C08B3422E0F3
:100E6000920781F0833922E0920771F08B30924033
:100E700061F406C0589A09C0599A07C05A9A05C029
:100E80005B9A03C05C9A01C05D9A80917F038D518B
:100E90008B30F0F5E0918003F0E0EE0FFF1FE2569B
:100EA000FD4F60817181882777FD8095982F0E9482
:100EB0009E0A0E94CB01E0918003F0E0EE0FFF1F3D
:100EC000E256FD4F808191818D3E21E09207C9F06D
:100ED00044F4883821E0920781F0883B914079F012
:100EE00017C08B3422E0920781F0833922E0920709
:100EF00071F08B30924061F406C0589A09C0599A3B
:100F000007C05A9A05C05B9A03C05C9A01C05D9AFB
:100F1000809186038F5F80938603089560E070E080
:100F2000CB010E94CB018BB180788BB98091860375
:100F30008F5F80938603089560E070E0CB010E948C
:100F4000CB018BB180788BB90895009B07C060E01E
:100F500070E084EC93E40E94CB010895019B07C0EC
:100F600060E070E08CED93E40E94CB010895029B59
:100F700007C060E070E886EF93E40E94CB0108951B
:100F8000039B07C060E070EC82E094E40E94CB0118
:100F90000895049B07C060E070EC82E194E40E9435
:100FA000CB010895059B07C060E070EC84E294E4F7
:100FB0000E94CB01089560E070E0CB010E94CB015C
:100FC000089560E070E0CB010E94CB0108958F92FC
:100FD0009F92AF92BF92CF92DF92EF92FF92CF9308
:100FE000C0B180918C0390918D03009719F0019707
:100FF00041F0D7C081E090E090938D0380938C0303
:10100000D0C082E090E00E94B50B90E0A0E0B0E09C
:1010100080937B0390937C03A0937D03B0937E0326
:10102000CC2369F121E030E030938D0320938C03D1
:1010300020917003309171032130310501F5209129
:101040007F03E22FF0E0E050FF4F30813C1304C0FB
:101050002F5F20937F0313C02E3018F410927F036C
:101060000EC032EF320F3F3020F42EE020937F038A
:1010700006C02D512B3018F42DE120937F032091D1
:101080007F034FEF50E0421B5109662757FD6095E3
:10109000762F481759076A077B0790F4BC01CD01EA
:1010A000615071098109910960937B0370937C03FE
:1010B00080937D0390937E0382E090E00E94BD0BBD
:1010C0008091870390918803019709F06AC08CE1B1
:1010D0000E94120180917F03CDEC8C9F812D112401
:1010E000869586958695805D0E948F008DE10E9491
:1010F000120180917F038C9FC12D1124C695C69546
:10110000C695CC0F9C2F990F990FC90F8C1B805D32
:101110000E948F008EE10E94120188E40E948F00DD
:101120008FE10E941201C12CD12C7601CA948091CA
:101130007B0390917C03A0917D03B0917E03A70176
:101140009601281B390B4A0B5B0BCA01B9010F2E04
:10115000FAE08F2E912CA12CB12CF02DA501940139
:101160000E94D40980E3820F0E948F0080E20E94D7
:10117000120180917B0390917C03A0917D03B0913B
:101180007E03A7019601281B390B4A0B5B0BCA0192
:10119000B901A50194010E94D40980E3860F0E9441
:1011A0008F00CF91FF90EF90DF90CF90BF90AF90E6
:1011B0009F908F9008951F93CF93DF93CDB7DEB7A5
:1011C000C054D1090FB6F894DEBF0FBECDBF88E082
:1011D000ECEBF2E0DE01119601900D928A95E1F7B9
:1011E00088E0E4ECF2E0DE01199601900D928A9518
:1011F000E1F788E0ECEEF2E0DE01519601900D920D
:101200008A95E1F788E0E4EFF2E0DE01599601907B
:101210000D928A95E1F788E0ECECF2E0DE01919620
:1012200001900D928A95E1F788E0E4EDF2E0DE01AD
:10123000999601900D928A95E1F788E0ECEDF2E045
:10124000DE01D19601900D928A95E1F788E0E4EEF7
:10125000F2E0DE01D99601900D928A95E1F70E94A5
:101260009F00BE016F5F7F4F80E00E94F700BE01CC
:10127000675F7F4F81E00E94F700BE016F5E7F4F86
:1012800082E00E94F700BE01675E7F4F83E00E940C
:10129000F700BE016F5D7F4F84E00E94F700BE0142
:1012A000675D7F4F85E00E94F700BE016F5C7F4F56
:1012B00086E00E94F700BE01675C7F4F87E00E94D6
:1012C000F70080E80E947F008DE593E00E94BE0059
:1012D00080EC0E947F0010E007C0812F0E948F00E9
:1012E00080E20E948F001F5F1830BCF3C05CDF4FAC
:1012F0000FB6F894DEBF0FBECDBFDF91CF911F9127
:1013000008950E941C0111B812B88CEF84B983E0D3
:1013100085B98FEF87B918B88AB91BB810928303C3
:101320001092820310928D0310928C030E949F00F2
:101330000E94DB080E94F0006AE070E080E090E02C
:101340000E94BA010E9440010E943B02812C912C14
:101350005401C12CD12C76018AE0C816D104E104D5
:10136000F10428F00E94C702C12CD12C76018CE236
:10137000881681E09806A104B10428F00E94E707CE
:10138000812C912C5401809176038823E1F31092F3
:1013900076038AE0C80ED11CE11CF11C8AE0880E9D
:1013A000911CA11CB11CD8CFA1E21A2EAA1BBB1BF9
:1013B000FD010DC0AA1FBB1FEE1FFF1FA217B30721
:1013C000E407F50720F0A21BB30BE40BF50B661F37
:1013D000771F881F991F1A9469F7609570958095FB
:1013E00090959B01AC01BD01CF010895EE0FFF1F49
:1013F0000024001C0BBE0790F691E02D0994D9D073
:1014000008F481E008950CD00FC107D140F0FED060
:1014100030F021F45F3F19F0F0C0511139C1F3C031
:1014200014D198F39923C9F35523B1F3951B550BA8
:10143000BB27AA2762177307840738F09F5F5F4FA7
:10144000220F331F441FAA1FA9F333D00E2E3AF0E8
:10145000E0E830D091505040E695001CCAF729D002
:10146000FE2F27D0660F771F881FBB1F2617370751
:101470004807AB07B0E809F0BB0B802DBF01FF2781
:1014800093585F4F2AF09E3F510568F0B6C000C1E7
:101490005F3FECF3983EDCF3869577956795B795BB
:1014A000F7959F5FC9F7880F911D9695879597F9D6
:1014B0000895E1E0660F771F881FBB1F621773074F
:1014C0008407BA0720F0621B730B840BBA0BEE1F64
:1014D00088F7E095089504D06894B111D9C00895B3
:1014E000BCD088F09F5790F0B92F9927B751A0F042
:1014F000D1F0660F771F881F991F1AF0BA95C9F7A8
:1015000012C0B13081F0C3D0B1E00895C0C0672FE0
:10151000782F8827B85F39F0B93FCCF38695779557
:101520006795B395D9F73EF4909580957095619540
:101530007F4F8F4F9F4F0895E89409C097FB3EF46B
:1015400090958095709561957F4F8F4F9F4F992310
:10155000A9F0F92F96E9BB279395F695879577958E
:101560006795B795F111F8CFFAF4BB0F11F460FF4E
:101570001BC06F5F7F4F8F4F9F4F16C0882311F0A6
:1015800096E911C0772321F09EE8872F762F05C0BA
:10159000662371F096E8862F70E060E02AF09A9555
:1015A000660F771F881FDAF7880F9695879597F94A
:1015B0000895990F0008550FAA0BE0E8FEEF1616E4
:1015C0001706E807F907C0F012161306E407F50737
:1015D00098F0621B730B840B950B39F40A2661F0AB
:1015E000232B242B252B21F408950A2609F4A1404E
:1015F000A6958FEF811D811D089597F99F6780E85B
:1016000070E060E008959FEF80EC089500240A9454
:101610001616170618060906089500240A941216CD
:101620001306140605060895092E0394000C11F400
:10163000882352F0BB0F40F4BF2B11F460FF04C0AD
:101640006F5F7F4F8F4F9F4F089557FD9058440F06
:10165000551F59F05F3F71F04795880F97FB991F11
:1016600061F09F3F79F087950895121613061406CE
:10167000551FF2CF4695F1DF08C01616170618065B
:10168000991FF1CF86957105610508940895E89436
:10169000BB2766277727CB0197F908958ADF08F4DF
:1016A0008FEF08950BD0C0CFB1DF28F0B6DF18F070
:1016B000952309F0A2CFA7CF1124EACFC6DFA0F36C
:1016C000959FD1F3950F50E0551F629FF001729FD7
:1016D000BB27F00DB11D639FAA27F00DB11DAA1FF6
:1016E000649F6627B00DA11D661F829F2227B00D43
:1016F000A11D621F739FB00DA11D621F839FA00DCE
:10170000611D221F749F3327A00D611D231F849F1D
:10171000600D211D822F762F6A2F11249F57504074
:101720008AF0E1F088234AF0EE0FFF1FBB1F661F0F
:10173000771F881F91505040A9F79E3F510570F0C8
:101740005CCFA6CF5F3FECF3983EDCF386957795B0
:101750006795B795F795E7959F5FC1F7FE2B880FC3
:10176000911D9695879597F90895F999FECF92BDA9
:1017700081BDF89A992780B50895262FF999FECF53
:101780001FBA92BD81BD20BD0FB6F894FA9AF99A9E
:0A1790000FBE01960895F894FFCFF4
:10179A000404040810040201010102040201040401
:1017AA0008101008040201010204020101101004C9
:1017BA0002041002041004020000190019001900A2
:1017CA00190019001900320019001900190019002E
:1017DA0019001900320019000C000C001900190038
:1017EA003200320019000C000C00190019003200F6
:1017FA0032001900190019001900190019001900FE
:10180A001900190019001900190019001900190006
:10181A000000000000000000000000000000880135
:10182A0088014B024B02930293024B020B020B02FA
:10183A00ED01ED01B801B8018801ED01ED01ED01FD
:10184A000B024B02ED01B801880188018801B80139
:10185A00ED01B8018801ED01ED010B024B024B02CB
:10186A000B02ED01B80188018801B801ED01B80148
:10187A00880188010000000000000000000000004C
:10188A000000030003000300030003000300030039
:10189A000300030003000300030003000300030026
:1018AA0019000C000C00190019003200320019004E
:1018BA000C000C001900190032003200190019003E
:1018CA001900190019001900190019001900190046
:1018DA001900190019001900190019001900190036
:1018EA0019001900320019001900190019003200F4
:1018FA0000000000ED01ED01ED010B024B02ED01CC
:10190A00B801880188018801B801ED01B801880190
:10191A00ED01ED010B024B024B020B02ED01B80186
:10192A0088018801B801ED01B801880188014B02DC
:10193A004B02ED01B801ED014B02B801ED014B027A
:10194A00ED01B8010000000001000000000A1511B5
:10195A000A040000041F11111F1F1F1F010305099C
:10196A00090B1B180A0A1F11110E040400000A00B1
:10197A0004110E00000A1F1F0E040000040E0E0EB2
:10198A001F0004000103071F1F070301456E6A6F4A
:10199A007920746865204D757369630050757368A2
:1019AA0020427574746F6E546F20537461727400A0
:1019BA004D656D6F72697A65204E6F74657300525A
:1019CA00657065617420746865204E6F7465730074
:1019DA00594F552057494E00415544494F20504CC4
:1019EA0041590047414D45204D4F444500437573C9
:0E19FA00746F6D2063686172204C43440000DE
:00000001FF
