:100000000C9454000C9473000C9473000C947300C3
:100010000C9473000C9473000C9473000C94730094
:100020000C9473000C9473000C9473000C94730084
:100030000C9473000C943D010C9473000C947300A9
:100040000C9473000C9473000C9473000C94730064
:100050000C9473000C9473000C9473000C94730054
:100060000C9473000C9473000C9473000C94730044
:100070000C9473000C9473000C9473000C94730034
:100080000C9473000C9473000C947300A602B402D9
:10009000CD0265038D039D03C703D903DC03E7038A
:1000A000B304C104CA04060511241FBECFEFD0E477
:1000B000DEBFCDBF12E0A0E0B1E0ECEDFEE000E07D
:1000C0000BBF02C007900D92AC37B107D9F712E011
:1000D000ACE7B2E001C01D92A139B107E1F70E947F
:1000E0005D050C946C070C94000088B95E985D98CF
:1000F0005F9A82E08A95F1F700C05F988FE99FE0F0
:100100000197F1F700C00000089588B95E9A5D98E4
:100110005F9A82E08A95F1F700C05F988FE99FE0CF
:100120000197F1F700C0000008958FEF8AB987B9F1
:100130008FE39CE90197F1F700C0000088E30E947B
:1001400075008CE00E94750086E00E94750081E0D9
:100150000E9475008FE99FE00197F1F700C0000051
:1001600080E80E94750008950F931F93CF93DF934B
:100170008C01C0E0D0E003C00E9485002196F80108
:10018000EC0FFD1F80818111F7CFDF91CF911F917F
:100190000F910895CF93DF93EA01811108C0603178
:1001A00034F4862F8F7080680E94750009C08130FA
:1001B00039F460312CF4862F8F70806C0E947500AA
:1001C000CE010E94B400DF91CF91089581E00E949A
:1001D000750080E80E94750008950F931F93CF93D8
:1001E000883090F48B01880F880F880F805C0E9404
:1001F0007500C0E007C0F801EC0FF11D80810E947E
:100200008500CF5FC830B8F3CF911F910F9108954B
:10021000813120F481580E947500089581550E9413
:10022000750008958BE0809381008DE790E09093B6
:1002300089008093880082E080936F00109285008F
:10024000109284008091F0019091F101A091F2014F
:10025000B091F30180937E0290937F02A09380027D
:10026000B09381028FB780688FBF0895109281008C
:10027000089581E08093820208951F920F920FB635
:100280000F9211240BB60F922F933F934F935F93CE
:100290006F937F938F939F93AF93BF93EF93FF934E
:1002A00080917E0290917F02A0918002B0918102A4
:1002B0000197A109B10980937E0290937F02A093D8
:1002C0008002B0938102892B8A2B8B2B91F40E94A0
:1002D00039018091F0019091F101A091F201B0916A
:1002E000F30180937E0290937F02A0938002B093EB
:1002F0008102FF91EF91BF91AF919F918F917F917B
:100300006F915F914F913F912F910F900BBE0F9086
:100310000FBE0F901F9018956093F0017093F1013C
:100320008093F2019093F30160937E0270937F02B9
:1003300080938002909381020895CF92DF92EF9292
:10034000FF926B017C0120918302309184024091E5
:100350008502509186020E94B605882309F458C090
:1003600020E030E0A901C701B6010E94B605811165
:1003700006C0E1E9F0E080818870808305C0E1E992
:10038000F0E080818360808328E539E344E75FE320
:10039000C701B6010E94B60588233CF48FEF9FEF9A
:1003A000909399008093980027C020E034E244EFB6
:1003B00056E4C701B6010E94050718162CF41092E6
:1003C00099001092980018C020E030E040E053E41B
:1003D000C701B6010E9409079B01AC0160E074E20D
:1003E00084EF9AE40E94BA050E94220661507109C6
:1003F0007093990060939800109295001092940069
:10040000C0928302D0928402E0928502F09286022A
:10041000FF90EF90DF90CF90089580E4809390005C
:100420008BE08093910060E070E0CB010E949D0121
:10043000089510929000109291000895CF93DF9349
:10044000CDB7DEB7E0970FB6F894DEBF0FBECDBFD5
:1004500088E0E4EFF1E0DE01119601900D928A95BB
:10046000E1F788E0ECEFF1E0DE01199601900D92E2
:100470008A95E1F788E0E4E0F2E0DE015196019030
:100480000D928A95E1F788E0ECE0F2E0DE01599602
:1004900001900D928A95E1F788E0E4E1F2E0DE0157
:1004A000919601900D928A95E1F788E0ECE1F2E0F7
:1004B000DE01999601900D928A95E1F70E949500D0
:1004C000BE016F5F7F4F80E00E94ED00BE01675F5D
:1004D0007F4F81E00E94ED00BE01675F7F4F82E0A9
:1004E0000E94ED00BE01675F7F4F83E00E94ED0038
:1004F000BE016F5E7F4F84E00E94ED00BE01675E2B
:100500007F4F85E00E94ED00BE016F5D7F4F86E06A
:100510000E94ED00BE01675D7F4F87E00E94ED0005
:10052000E0960FB6F894DEBF0FBECDBFDF91CF913E
:10053000089580B1E0918A02F0918B02E730F105D5
:1005400008F02BC1EA5BFF4F0C94AD0584E292E00A
:100550000E94B40084E00E94850081E090E09093C6
:100560008B0280938A0219C1189910C082E090E032
:1005700090938B0280938A020E94E60088E392E0C7
:100580000E94B40082E00E94850007C181E090E0F3
:1005900090938B0280938A0200C18091870281111F
:1005A0002FC020918C0230E0E0918802F0E0EE0F45
:1005B000FF1FE85BFE4F408151814217530738F01F
:1005C00022E030E030938B0220938A0219C0421758
:1005D0005307B0F490918D029F5F90938D029E30EF
:1005E00038F024E030E030938B0220938A0208C078
:1005F00023E030E030938B0220938A0210928C0229
:100600008E3079F520918C0230E0E0918802F0E0A4
:10061000EE0FFF1FEC59FE4F4081518142175307E7
:1006200038F022E030E030938B0220938A0219C028
:1006300042175307B0F490918D029F5F90938D0203
:100640009F3038F024E030E030938B0220938A0210
:1006500008C023E030E030938B0220938A0210928E
:100660008C028D3109F099C080918C0290E0E0916C
:100670008802F0E0EE0FFF1FEE57FE4F2081318120
:100680002817390738F082E090E090938B0280932E
:100690008A0283C02817390708F07FC080918D0235
:1006A0008F5F80938D028B3038F084E090E09093E0
:1006B0008B0280938A0271C083E090E090938B025A
:1006C00080938A0210928C0268C080918C0290E024
:1006D000E0918D02F0E0EE0FFF1FE65DFE4F2081FE
:1006E00031812817390738F083E090E090938B022E
:1006F00080938A0252C02817390708F04EC082E062
:1007000090E090938B0280938A02809188028F5FA1
:100710008093880210928C0240C00E94E60087E419
:1007200092E00E94B40083E00E94850085E090E0A2
:1007300090938B0280938A0230C0189B21C08091D5
:100740008702883269F085E090E090938B02809375
:100750008A0281E090E090937D0280937C021DC02C
:100760000E94E60088E592E00E94B40087E00E94C3
:10077000850086E090E090938B0280938A020DC002
:1007800081E090E090938B0280938A0206C01899D2
:1007900004C010928B0210928A02E0918A02F091BA
:1007A0008B02E730F10508F036C1E35BFF4F0C9494
:1007B000AD0510928702089510927D0210927C027E
:1007C0001092880210928C0210928D0208958091EE
:1007D000870281113EC0E0918802F0E0EE0FFF1F1A
:1007E000E456FE4F60817181882777FD8095982FB0
:1007F0000E9455060E949D01E0918802F0E0EE0FF4
:10080000FF1FE456FE4F808191818D3E21E09207CB
:10081000C9F044F4883821E0920781F0883B914088
:1008200079F017C08B3422E0920781F0833922E0FF
:10083000920771F08B30924061F406C0589A09C05B
:10084000599A07C05A9A05C05B9A03C05C9A01C0C6
:100850005D9A809187028E30F1F5E0918802F0E098
:10086000EE0FFF1FE854FE4F60817181882777FDEE
:100870008095982F0E9455060E949D01E091880264
:10088000F0E0EE0FFF1FE854FE4F808191818D3E16
:1008900021E09207C9F044F4883821E0920781F002
:1008A000883B914079F017C08B3422E0920781F0A9
:1008B000833922E0920771F08B30924061F406C0D8
:1008C000589A09C0599A07C05A9A05C05B9A03C042
:1008D0005C9A01C05D9A809187028D31F1F5E091BB
:1008E0008802F0E0EE0FFF1FEA52FE4F6081718137
:1008F000882777FD8095982F0E9455060E949D01BC
:10090000E0918802F0E0EE0FFF1FEA52FE4F808177
:1009100091818D3E21E09207C9F044F4883821E0AE
:10092000920781F0883B914079F017C08B3422E028
:10093000920781F0833922E0920771F08B30924068
:1009400061F406C0589A09C0599A07C05A9A05C05E
:100950005B9A03C05C9A01C05D9A80918C028F5FA4
:1009600080938C02089560E070E0CB010E949D01AD
:100970008BB180788BB980918C028F5F80938C02D1
:10098000089560E070E0CB010E949D018BB18078FA
:100990008BB90895009B07C060E070E084EC93E49D
:1009A0000E949D010895019B07C060E070E08CEDFE
:1009B00093E40E949D010895029B07C060E070E8E7
:1009C00086EF93E40E949D010895039B07C060E0B9
:1009D00070EC82E094E40E949D010895049B07C09E
:1009E00060E070EC82E194E40E949D010895059B13
:1009F00007C060E070EC84E294E40E949D010895D9
:100A000060E070E0CB010E949D01089560E070E01D
:100A1000CB010E949D010895CF9320B180918E0259
:100A200090918F02009719F0019741F044C081E046
:100A300090E090938F0280938E023DC02223C1F0FC
:100A400081E090E090938F0280938E0280917C02EF
:100A500090917D02019761F480918702E82FF0E088
:100A6000E050FF4F9081921303C08F5F8093870205
:100A70008EE10E94080180918702CDEC8C9F812D30
:100A80001124869586958695805D0E9485008FE16C
:100A90000E940801809187028C9FC12D1124C69568
:100AA000C695C695CC0F9C2F990F990FC90F8C1B1B
:100AB000805D0E948500CF91089511B812B88EEF25
:100AC00084B981E085B98FEF87B918B88AB91BB8A6
:100AD00010928B0210928A0210928F0210928E0254
:100AE0000E94950080E692E00E94B4006AE070E007
:100AF00080E090E00E948C010E9412010E940D0291
:100B0000812C912C5401C12CD12C76018AE0C8167D
:100B1000D104E104F10428F00E949902C12CD12CE7
:100B2000760188EC88169104A104B10428F00E9493
:100B30000C05812C912C5401809182028823E1F3D1
:100B4000109282028AE0C80ED11CE11CF11C8AE0DE
:100B5000880E911CA11CB11CD9CFEE0FFF1F0024E1
:100B6000001C0BBE0790F691E02D0994D9D008F433
:100B700081E008950CD00FC107D140F0FED030F0D5
:100B800021F45F3F19F0F0C0511139C1F3C014D105
:100B900098F39923C9F35523B1F3951B550BBB2744
:100BA000AA2762177307840738F09F5F5F4F220FF1
:100BB000331F441FAA1FA9F333D00E2E3AF0E0E8EA
:100BC00030D091505040E695001CCAF729D0FE2F36
:100BD00027D0660F771F881FBB1F261737074807C8
:100BE000AB07B0E809F0BB0B802DBF01FF2793587E
:100BF0005F4F2AF09E3F510568F0B6C000C15F3FCD
:100C0000ECF3983EDCF3869577956795B795F79565
:100C10009F5FC9F7880F911D9695879597F908955D
:100C2000E1E0660F771F881FBB1F621773078407F9
:100C3000BA0720F0621B730B840BBA0BEE1F88F708
:100C4000E095089504D06894B111D9C00895BCD03E
:100C500088F09F5790F0B92F9927B751A0F0D1F0A5
:100C6000660F771F881F991F1AF0BA95C9F712C02F
:100C7000B13081F0C3D0B1E00895C0C0672F782FA4
:100C80008827B85F39F0B93FCCF38695779567959B
:100C9000B395D9F73EF490958095709561957F4F07
:100CA0008F4F9F4F0895E89409C097FB3EF49095AD
:100CB0008095709561957F4F8F4F9F4F9923A9F035
:100CC000F92F96E9BB279395F695879577956795C4
:100CD000B795F111F8CFFAF4BB0F11F460FF1BC008
:100CE0006F5F7F4F8F4F9F4F16C0882311F096E99B
:100CF00011C0772321F09EE8872F762F05C0662349
:100D000071F096E8862F70E060E02AF09A95660F01
:100D1000771F881FDAF7880F9695879597F90895BA
:100D2000990F0008550FAA0BE0E8FEEF16161706FC
:100D3000E807F907C0F012161306E407F50798F064
:100D4000621B730B840B950B39F40A2661F0232B7D
:100D5000242B252B21F408950A2609F4A140A695F9
:100D60008FEF811D811D089597F99F6780E870E0DE
:100D700060E008959FEF80EC089500240A94161611
:100D8000170618060906089500240A941216130679
:100D9000140605060895092E0394000C11F4882307
:100DA00052F0BB0F40F4BF2B11F460FF04C06F5F23
:100DB0007F4F8F4F9F4F089557FD9058440F551FF9
:100DC00059F05F3F71F04795880F97FB991F61F0CD
:100DD0009F3F79F087950895121613061406551F44
:100DE000F2CF4695F1DF08C0161617061806991FB0
:100DF000F1CF86957105610508940895E894BB27A5
:100E000066277727CB0197F908958ADF08F48FEFDB
:100E100008950BD0C0CFB1DF28F0B6DF18F09523CE
:100E200009F0A2CFA7CF1124EACFC6DFA0F3959F88
:100E3000D1F3950F50E0551F629FF001729FBB27C1
:100E4000F00DB11D639FAA27F00DB11DAA1F649F6D
:100E50006627B00DA11D661F829F2227B00DA11D20
:100E6000621F739FB00DA11D621F839FA00D611DA6
:100E7000221F749F3327A00D611D231F849F600DC7
:100E8000211D822F762F6A2F11249F5750408AF000
:100E9000E1F088234AF0EE0FFF1FBB1F661F771F8C
:100EA000881F91505040A9F79E3F510570F05CCFCC
:100EB000A6CF5F3FECF3983EDCF386957795679578
:100EC000B795F795E7959F5FC1F7FE2B880F911DAA
:0C0ED0009695879597F90895F894FFCF48
:100EDC00010110102020100808040402020104046F
:100EEC000810100804020101020402010110100490
:100EFC0002041002041002010000030003000300AE
:100F0C0003000300030003000300030003000300BD
:100F1C000300030003000300190019001900190055
:100F2C0019001900320019001900190019001900D4
:100F3C0019003200190019001900190019001900C4
:100F4C0019001900190019001900190019001900CD
:100F5C0019001900190019001900190032001900A4
:100F6C0019001900190032000000000088018801E6
:100F7C004B024B02930293024B020B020B02ED014C
:100F8C00ED01B801B8018801ED01ED010B024B0236
:100F9C004B020B02ED01B80188018801B801ED018B
:100FAC00B801880188014B024B02ED01B801ED013B
:100FBC004B02B801ED014B02B801880100000000A2
:100FCC0001000000000A15110A040000041F111191
:100FDC001F1F1F1F01030509090B1B180A0A1F11EC
:100FEC00110E040400000A0004110E00000A1F1F59
:100FFC000E0400005075736820427574746F6E5443
:10100C006F205374617274004D656D6F72697A65EF
:10101C00204E6F746573005265706561742074683E
:10102C0065204E6F74657300594F552057494E001B
:10103C005075736820427574746F6E20546F202045
:0C104C0053746172742047616D650000F0
:00000001FF
